S01B00003139322D31323939393941204669726D776172652E7331392B
S21400800000EF40F07E0187A92CEF87F01200FFFFFB
S214008010000001000700FFFF8EEF87F01200FFFF51
S214008020FFFFFFFFFFFFFFFFFFFFFFFFFFFFFFFF5B
S21400803061EC92F039EF7CF0FDD7120006008D2936
S2140080400100600000001800000087290100EE0E05
S21400805000000600000064290100000F0000230055
S214008060000030290100C901000034000000A428E7
S2140080700100730B00008C0000007E280100000049
S214008080000026000000D9CFE6FFE1CFD9FF81E946
S21400809042E8016A00014651240A01E164D3390A24
S2140080A001E160D3010A01E15CD3350A01E158D34E
S2140080B03F0A01E139D3030A01E135D3360A01E16B
S2140080C031D3010A01E12DD3320A01E129D30A0A8C
S2140080D001E125D3150A01E1EED21E0A01E1C7D25D
S2140080E00A0A01E178D2160A01E151D2140A01E126
S2140080F01AD20A0A01E194D1330A01E190D1380A72
S21400810001E18CD10F0A01E188D11B0A01E184D17B
S214008110070A01E165D1010A01E146D1030A01E13E
S21400812027D1010A01E1F0D00F0A01E1D1D0010AFE
S21400813001E198D0030A01E179D0010A5BE0070A61
S2140081403DE0010A1FE0030A01E039D3040EE66EA3
S214008150E66AFF0EE66EF20EE66E000EE66E730E32
S214008160E66E0A0EE66EB4EC8BF047E9040EE66E99
S214008170730EE66E0A0EE66E010EE66E2CEC70F0DE
S21400818044E91DD30D0EE66EE66A0A0EE66EF30EA1
S214008190E66E000EE66E730EE66E0A0EE66EB4EC43
S2140081A08BF047E90D0EE66E730EE66E0A0EE66E6F
S2140081B0010EE66E2CEC70F044E901D30F0EE66E6D
S2140081C0E66A380EE66EF30EE66E000EE66E730E88
S2140081D0E66E0A0EE66EB4EC8BF047E90F0EE66E1E
S2140081E0730EE66E0A0EE66E010EE66E2CEC70F06E
S2140081F044E9E5D20D0EE66EE66A540EE66EF30E20
S214008200E66E000EE66E730EE66E0A0EE66EB4ECD2
S2140082108BF047E90D0EE66E730EE66E0A0EE66EFE
S214008220010EE66E2CEC70F044E9C9D2140EE66E30
S214008230E66A6E0EE66EF30EE66E000EE66E730EE1
S214008240E66E0A0EE66EB4EC8BF047E9140EE66EA8
S214008250730EE66E0A0EE66E010EE66E2CEC70F0FD
S21400826044E9ADD20A0EE66EE66A960EE66EF30EA8
S214008270E66E000EE66E730EE66E0A0EE66EB4EC62
S2140082808BF047E9016A060E015C16E2050ED880FF
S2140082900154EA6A260FE96E000EEA22EF50E66EF7
S2140082A0040E0124EA6A730FE96E0A0EEA22E5520A
S2140082B0E750EF6E012AE7D70A0EE66E730EE66EFB
S2140082C00A0EE66E010EE66E2CEC70F044E977D2EC
S2140082D0070EE66EE66AA70EE66EF30EE66E000E74
S2140082E0E66E730EE66E0A0EE66EB4EC8BF047E9A9
S2140082F0070EE66E730EE66E0A0EE66E010EE66E6C
S2140083002CEC70F044E95BD21C0EE66EE66AB60E04
S214008310E66EF30EE66E000EE66E730EE66E0A0E60
S214008320E66EB4EC8BF047E9016A0A0E015C14E2D3
S2140083300150EA6A180FE96E0F0EEA22EF50E66E59
S214008340120E0124EA6A730FE96E0A0EEA22E5525B
S214008350E750EF6E012AE9D71C0EE66E730EE66E46
S2140083600A0EE66E010EE66E2CEC70F044E927D29B
S2140083700D0EE66EE66AE00EE66EF30EE66E000E94
S214008380E66E730EE66E0A0EE66EB4EC8BF047E908
S2140083900D0EE66E730EE66E0A0EE66E010EE66EC5
S2140083A02CEC70F044E90BD2070EE66EE66AFC0E83
S2140083B0E66EF30EE66E000EE66E730EE66E0A0EC0
S2140083C0E66EB4EC8BF047E9070EE66E730EE66ECB
S2140083D00A0EE66E010EE66E2CEC70F044E9EFD164
S2140083E0080EE66EE66A0B0EE66EF40EE66E000EFD
S2140083F0E66E730EE66E0A0EE66EB4EC8BF047E998
S214008400080EE66E730EE66E0A0EE66E010EE66E59
S2140084102CEC70F044E9D3D1D2D1D1D1D0D1CFD188
S2140084200A013F054CE10F0EE66EE66ABB0EE66EED
S214008430F40EE66E000EE66E730EE66E0A0EE66E3E
S214008440B4EC8BF047E9016A060E015C14E20150B9
S214008450EA6A290FE96E0A0EEA22EF50E66E080E67
S2140084600124EA6A730FE96E0A0EEA22E552E75023
S214008470EF6E012AE9D7016A100E015C14E2015082
S214008480EA6A2F0FE96E0A0EEA22EF50E66E0F0E2A
S2140084900124EA6A730FE96E0A0EEA22E552E750F3
S2140084A0EF6E012AE9D71F0EE66E730EE66E0A0E11
S2140084B0E66E010EE66E2CEC70F044E933D00F0E3B
S2140084C0E66EE66AAC0EE66EF40EE66E000EE66E3D
S2140084D0730EE66E0A0EE66EB4EC8BF047E9016AA0
S2140084E0060E015C14E20150EA6A2C0FE96E000EDB
S2140084F0EA22EF50E66E080E0124EA6A730FE96E70
S2140085000A0EEA22E552E750EF6E012AE9D70F0E6F
S214008510E66E730EE66E0A0EE66E010EE66E2CEC46
S21400852070F044E94CD1130EE66EE66ADC0EE66E99
S214008530F40EE66E000EE66E730EE66E0A0EE66E3D
S214008540B4EC8BF047E9016A060E015C14E20150B8
S214008550EA6A2C0FE96E000EEA22EF50E66E0A0E6B
S2140085600124EA6A730FE96E0A0EEA22E552E75022
S214008570EF6E012AE9D7130EE66E730EE66E0A0E4C
S214008580E66E010EE66E2CEC70F044E918D1016A36
S214008590060E015C14E20150EA6A2C0FE96E000E2A
S2140085A0EA22EF50E66E070E0124EA6A0F0FE96E24
S2140085B0000EEA22E552E750EF6E012AE9D7170EC1
S2140085C0E66E0F0EE66E000EE66E010EE66E2CEC04
S2140085D070F044E9F4D00F0EE66EE66ABB0EE66E67
S2140085E0F40EE66E000EE66E730EE66E0A0EE66E8D
S2140085F0B4EC8BF047E9016A060E015C14E2015008
S214008600EA6A2C0FE96E000EEA22EF50E66E080EBC
S2140086100124EA6A730FE96E0A0EEA22E552E75071
S214008620EF6E012AE9D7016A100E015C14E20150D0
S214008630EA6A350FE96E000EEA22EF50E66E0F0E7C
S2140086400124EA6A730FE96E0A0EEA22E552E75041
S214008650EF6E012AE9D71F0EE66E730EE66E0A0E5F
S214008660E66E010EE66E2CEC70F044E9A8D0016AC6
S214008670060E015C14E20150EA6A2C0FE96E000E49
S214008680EA22EF50E66E080E0124EA6A000FE96E51
S214008690000EEA22E552E750EF6E012AE9D70F0EE8
S2140086A0E66E000EE66E000EE66E010EE66E2CEC32
S2140086B070F044E984D0110EE66EE66A240EE66E8B
S2140086C0F50EE66E000EE66E730EE66E0A0EE66EAB
S2140086D0B4EC8BF047E9016A060E015C14E2015027
S2140086E0EA6A2C0FE96E000EEA22EF50E66E0A0EDA
S2140086F00124EA6A730FE96E0A0EEA22E552E75091
S214008700EF6E012AE9D7110EE66E730EE66E0A0EBC
S214008710E66E010EE66E2CEC70F044E950D04FD0B9
S2140087204ED04DD04CD04BD0070EE66EE66AF50E16
S214008730E66EF50EE66E000EE66E730EE66E0A0E3A
S214008740E66EB4EC8BF047E9070EE66E730EE66E47
S2140087500A0EE66E010EE66E2CEC70F044E92FD0A1
S2140087602ED02DD02CD01A0EE66EE66AFC0EE66EE3
S214008770F50EE66E000EE66E730EE66E0A0EE66EFA
S214008780B4EC8BF047E9060EE66EE66A230EE66E5C
S214008790F60EE66E000EE66E860EE66E0A0EE66EC6
S2140087A0B4EC8BF047E91A0EE66E730EE66E0A0E10
S2140087B0E66E010EE66E2CEC70F044E900D043E95C
S2140087C0E7CFD9FF1200D9CFE6FFE1CFD9FF81E985
S2140087D041E874EC50F00001476B486B0A013F6BB0
S2140087E00B0EE66EE66A180EE66E0F0EE66E700E5E
S2140087F0E66E000EE66EF4EC88F046E9170EE66EBE
S214008800E66A290EE66E0A0EE66E000EE66E030EA9
S214008810E66EF4EC88F046E942E9E7CFD9FF1200AD
S214008820D9CFE6FFE1CFD9FF83E955E8036A0C6AA2
S21400883000014651240A02E144EF50F0390A02E1F1
S214008840E1EF4CF00B0A02E1B8EF4CF0350A02E11A
S21400885082EF4CF0010A02E136EF4CF0390A02E1F1
S21400886006EF4CF03A0A02E1A6EF4BF03B0A02E1B3
S214008870BEEF4AF0060A02E115EF4AF0130A02E1DB
S214008880C9EF49F02F0A02E17DEF49F0390A02E10B
S21400889031EF49F0010A02E149EF48F00F0A01E121
S2140088A016D3040A01E179D21F0A01E117D2070A9A
S2140088B001E1E4D1010A01E1B6D1030A01E188D160
S2140088C0010A01E13CD10F0A01E10ED1010A01E1E2
S2140088D0E0D0030A01E19AD0010A6DE0070A40E001
S2140088E0010A21E0030A02E05FEF50F0070EE66E91
S2140088F0E66A030EE66EF30EE66E000EE66E00EB1C
S214008900E6FF01EBE6FF6AEC8BF047E9000909E1B8
S214008910020EE66E65EC50F041E943EC40F0010EC5
S214008920036E5FEF50F0210EE66EE66A170EE66EF7
S214008930F30EE66E000EE66E00EBE6FF01EBE6FFDA
S2140089406AEC8BF047E9000909E1030EE66E65EC78
S21400895050F041E943EC40F0010E036E5FEF50F03B
S2140089600D0EE66EE66A470EE66EF30EE66E000E37
S214008970E66E730EE66E0A0EE66EB4EC8BF047E912
S2140089800D0EE66EE66A730EE66E0A0EE66E00EBF7
S214008990E6FF01EBE6FF41EC8BF046E9000909E152
S2140089A0040EE66E65EC50F041E943EC40F0010E33
S2140089B0036E5FEF50F00D0EE66EE66A610EE66E31
S2140089C0F30EE66E000EE66E730EE66E0A0EE66EAA
S2140089D0B4EC8BF047E90D0EE66EE66A730EE66EB3
S2140089E00A0EE66E00EBE6FF01EBE6FF41EC8BF0CD
S2140089F046E9000909E1050EE66E65EC50F041E92E
S214008A0043EC40F0010E036E5FEF50F0140EE66E7E
S214008A10E66A820EE66EF30EE66E000EE66E730EE5
S214008A20E66E0A0EE66EB4EC8BF047E90E0EE66EC6
S214008A30E66A730EE66E0A0EE66E00EBE6FF01EBE4
S214008A40E6FF41EC8BF046E9000921E10C6A060ED0
S214008A500C5C14E20E0E0C240024E96E000E0120BD
S214008A60EA6EEF50E66E0C50EA6A260FE96E000ECC
S214008A70EA22E552E750EF6E0C2AE9D7060EE66EBC
S214008A8065EC50F041E943EC40F0010E036E5FEFF9
S214008A9050F0070EE66EE66AA00EE66EF30EE66E81
S214008AA0000EE66E730EE66E0A0EE66EB4EC8BF003
S214008AB047E9070EE66EE66A730EE66E0A0EE66E87
S214008AC000EBE6FF01EBE6FF41EC8BF046E9000920
S214008AD009E1070EE66E65EC50F041E943EC40F024
S214008AE0010E036E5FEF50F0080EE66EE66AAE0EFD
S214008AF0E66EF30EE66E000EE66E730EE66E0A0E79
S214008B00E66EB4EC8BF047E9080EE66EE66A730E86
S214008B10E66E0A0EE66E00EBE6FF01EBE6FF41ECC2
S214008B208BF046E9000909E1080EE66E65EC50F0A8
S214008B3041E943EC40F0010E036E5FEF50F00E0E7D
S214008B40E66EE66AD20EE66EF30EE66E000EE66E91
S214008B50730EE66E0A0EE66EB4EC8BF047E90C6A0E
S214008B60060E0C5C16E2050ED8800C54EA6A260F38
S214008B70E96E000EEA22EF50E66E080E0C24EA6A52
S214008B80730FE96E0A0EEA22E552E750EF6E0C2AE2
S214008B90E7D7730E086E0A0E096E0E0EE66EE66ACC
S214008BA008EBE6FF09EBE6FF00EBE6FF01EBE6FF6E
S214008BB041EC8BF046E9000909E1090EE66E65EC2A
S214008BC050F041E943EC40F0010E036E5FEF50F0C9
S214008BD00F0EE66EE66AED0EE66EF30EE66E000E1D
S214008BE0E66E730EE66E0A0EE66EB4EC8BF047E9A0
S214008BF00F0EE66EE66A730EE66E0A0EE66E00EB83
S214008C00E6FF01EBE6FF41EC8BF046E9000909E1DF
S214008C100A0EE66E65EC50F041E943EC40F0010EBA
S214008C20036E5FEF50F0080EE66EE66A030EE66E21
S214008C30F40EE66E000EE66E730EE66E0A0EE66E36
S214008C40B4EC8BF047E9080EE66EE66A730EE66E45
S214008C500A0EE66E00EBE6FF01EBE6FF41EC8BF05A
S214008C6046E9000909E10B0EE66E65EC50F041E9B5
S214008C7043EC40F0010E036E5FEF50F0080EE66E18
S214008C80E66A130EE66EF40EE66E000EE66E730EE1
S214008C90E66E0A0EE66EB4EC8BF047E9080EE66E5A
S214008CA0E66A730EE66E0A0EE66E00EBE6FF01EB72
S214008CB0E6FF41EC8BF046E900090EE10C0EE66E8D
S214008CC065EC50F041E943EC40F0010E036E0A01FA
S214008CD0100E426F0A01416B5FEF50F048515BE1A6
S214008CE0070EE66EE66AA50EE66EF40EE66E000E5B
S214008CF0E66E730EE66E0A0EE66EB4EC8BF047E98F
S214008D00070EE66EE66A730EE66E0A0EE66E00EB79
S214008D10E6FF01EBE6FF41EC8BF046E900093BE19C
S214008D200C6A060E0C5C14E2070E0C240024E96E96
S214008D30000E0120EA6EEF50E66E0C50EA6A2C0F29
S214008D40E96E000EEA22E552E750EF6E0C2AE9D7EC
S214008D500C6A030E0C5C14E20D0E0C240024E96E63
S214008D60000E0120EA6EEF50E66E0C50EA6A320FF3
S214008D70E96E000EEA22E552E750EF6E0C2AE9D7BC
S214008D80130EE66E65EC50F041E943EC40F000014E
S214008D90482B010E036E5FEF50F0480501E095D0BA
S214008DA0080EE66EE66ACA0EE66EF40EE66E000E74
S214008DB0E66E730EE66E0A0EE66EB4EC8BF047E9CE
S214008DC0080EE66EE66A730EE66E0A0EE66E00EBB8
S214008DD0E6FF01EBE6FF41EC8BF046E9000975E1A2
S214008DE0080E0024E96E000E0120EA6EEF5000081F
S214008DF05AE2170E0024E96E000E0120EA6EEF50CC
S214008E00000851E200EBE9FF01EBEAFFEF50000833
S214008E104AE2120EE66EE66AEF0EE66EF40EE66EB6
S214008E20000EE66E730EE66E0A0EE66EB4EC8BF07F
S214008E3047E90C6A060E0C5C14E20C50EA6A2C0F2A
S214008E40E96E000EEA22EF50E66E200E0C24EA6A67
S214008E50730FE96E0A0EEA22E552E750EF6E0C2A0F
S214008E60E9D7120EE66EE66A730EE66E0A0EE66E38
S214008E70170E0024E96E000E0120EA6EEF50E66E33
S214008E80E66A41EC8BF046E900090CE10001040EAD
S214008E90486F190EE66E65EC50F041E943EC40F081
S214008EA0010E036E0BD00001482B010E036E170E49
S214008EB0E66E65EC50F041E943EC40F0140EE66EC9
S214008EC0E66AE66AECEC8DF043E95FEF50F0020EDE
S214008ED0485D01E0DCD0020EE66EE66AAB0EE66E9A
S214008EE0F50EE66E000EE66E730EE66E0A0EE66E83
S214008EF0B4EC8BF047E9020EE66EE66A730EE66E99
S214008F000A0EE66E030E00010024856F000E012097
S214008F10866F85C0E6FF86C0E6FF41EC8BF046E92B
S214008F2000092AE1060EE66EE66A2C0EE66E000ED4
S214008F30E66E080E00010024876F000E0120886F81
S214008F4087C0E6FF88C0E6FF41EC8BF046E90009E3
S214008F5013E100010D0E486F010EE66EE66AE66E3E
S214008F60ECEC8DF043E9230EE66E65EC50F041E93B
S214008F7043EC40F0010E036E0F0EE66EE66A790EC5
S214008F80E66EF40EE66E000EE66E730EE66E0A0EE3
S214008F90E66EB4EC8BF047E90C6A060E0C5C14E245
S214008FA00C50EA6A2C0FE96E000EEA22EF50E66ECD
S214008FB0080E0C24EA6A730FE96E0A0EEA22E552DE
S214008FC0E750EF6E0C2AE9D70F0EE66EE66A730ED0
S214008FD0E66E0A0EE66E00EBE6FF01EBE6FF41ECFE
S214008FE08BF046E900090BE10001482B180EE66EEF
S214008FF065EC50F041E943EC40F0010E036E120EB2
S214009000E66EE66AEF0EE66EF40EE66E000EE66EAE
S214009010730EE66E0A0EE66EB4EC8BF047E90C6A49
S214009020060E0C5C14E20C50EA6A2C0FE96E000E79
S214009030EA22EF50E66E090E0C24EA6A730FE96E18
S2140090400A0EEA22E552E750EF6E0C2AE9D7730EB5
S214009050086E0A0E096E120EE66EE66A08EBE6FF6A
S21400906009EBE6FF00EBE6FF01EBE6FF41EC8BF0D9
S21400907046E900090CE10001040E486F190EE66E81
S21400908065EC50F041E943EC40F0010E036E5FEFF3
S21400909050F0030E485D01E0E2D0020EE66EE66A8E
S2140090A0AB0EE66EF50EE66E000EE66E730EE66E20
S2140090B00A0EE66EB4EC8BF047E9020EE66EE66A40
S2140090C0730EE66E0A0EE66E030E00010024856F30
S2140090D0000E0120866F85C0E6FF86C0E6FF41ECE5
S2140090E08BF046E900092AE1060EE66EE66A2C0ECB
S2140090F0E66E000EE66E080E00010024876F000E76
S2140091000120886F87C0E6FF88C0E6FF41EC8BF041
S21400911046E9000913E1010EE66EE66AE66EECEC3F
S2140091208DF043E900010D0E486F230EE66E65ECE8
S21400913050F041E943EC40F0010E036E120EE66E6D
S214009140E66AEF0EE66EF40EE66E000EE66E730E40
S214009150E66E0A0EE66EB4EC8BF047E90C6A060E75
S2140091600C5C14E20C50EA6A2C0FE96E000EEA2240
S214009170EF50E66E090E0C24EA6A730FE96E0A0ECB
S214009180EA22E552E750EF6E0C2AE9D7730E086E16
S2140091900A0E096E120EE66EE66A08EBE6FF09EBAB
S2140091A0E6FF00EBE6FF01EBE6FF41EC8BF046E95D
S2140091B000090BE10001482B190EE66E65EC50F035
S2140091C041E943EC40F0010E036E140EE66EE66ACB
S2140091D0100EE66EF50EE66E000EE66E730EE66E8A
S2140091E00A0EE66EB4EC8BF047E90C6A060E0C5CD1
S2140091F014E20C50EA6A2C0FE96E000EEA22EF50D9
S214009200E66E070E0C24EA6A730FE96E0A0EEA226F
S214009210E552E750EF6E0C2AE9D7020EE66EE66AD4
S214009220760EE66E0A0EE66E030E00010024856FCB
S214009230000E0120866F85C0E6FF86C0E6FF41EC83
S2140092408BF046E900090BE10001482B190EE66E8B
S21400925065EC50F041E943EC40F0010E036E5FEF21
S21400926050F0040E485D47E1150EE66EE66A350ED0
S214009270E66EF50EE66E000EE66E730EE66E0A0EEF
S214009280E66EB4EC8BF047E90C6A060E0C5C14E252
S2140092900C50EA6A2C0FE96E000EEA22EF50E66EDA
S2140092A00F0E0C24EA6A730FE96E0A0EEA22E552E4
S2140092B0E750EF6E0C2AE9D7730E086E0A0E096E99
S2140092C0150EE66EE66A08EBE6FF09EBE6FF00EB36
S2140092D0E6FF01EBE6FF41EC8BF046E900090BE107
S2140092E00001482B200EE66E65EC50F041E943EC99
S2140092F040F0010E036E5FEF50F0050E485D47E14B
S2140093000F0EE66EE66A4A0EE66EF50EE66E000E86
S214009310E66E730EE66E0A0EE66EB4EC8BF047E968
S2140093200C6A060E0C5C14E20C50EA6A2C0FE96E0E
S214009330000EEA22EF50E66E090E0C24EA6A730F5E
S214009340E96E0A0EEA22E552E750EF6E0C2AE9D7DC
S214009350730E086E0A0E096E0F0EE66EE66A08EBCE
S214009360E6FF09EBE6FF00EBE6FF01EBE6FF41EC6C
S2140093708BF046E900090BE10001482B0F0EE66E64
S21400938065EC50F041E943EC40F0010E036E5FEFF0
S21400939050F0060E485D47E1150EE66EE66A590E79
S2140093A0E66EF50EE66E000EE66E730EE66E0A0EBE
S2140093B0E66EB4EC8BF047E90C6A060E0C5C14E221
S2140093C00C50EA6A2C0FE96E000EEA22EF50E66EA9
S2140093D00F0E0C24EA6A730FE96E0A0EEA22E552B3
S2140093E0E750EF6E0C2AE9D7730E086E0A0E096E68
S2140093F0150EE66EE66A08EBE6FF09EBE6FF00EB05
S214009400E6FF01EBE6FF41EC8BF046E900090BE1D5
S2140094100001482B1C0EE66E65EC50F041E943EC6B
S21400942040F0010E036E5FEF50F0070E485D01E05E
S214009430A3D0100EE66EE66A6E0EE66EF50EE66ECB
S214009440000EE66E730EE66E0A0EE66EB4EC8BF059
S21400945047E90C6A060E0C5C14E20C50EA6A2C0F04
S214009460E96E000EEA22EF50E66E0A0E0C24EA6A57
S214009470730FE96E0A0EEA22E552E750EF6E0C2AE9
S214009480E9D7730E086E0A0E096E100EE66EE66ACF
S21400949008EBE6FF09EBE6FF00EBE6FF01EBE6FF75
S2140094A041EC8BF046E900090BE10001482B1A0E4F
S2140094B0E66E65EC50F041E943EC40F0010E036EB9
S2140094C0100EE66EE66A7E0EE66EF50EE66E000E90
S2140094D0E66E730EE66E0A0EE66EB4EC8BF047E9A7
S2140094E00C6A060E0C5C14E20C50EA6A2C0FE96E4D
S2140094F0000EEA22EF50E66E0A0E0C24EA6A730F9C
S214009500E96E0A0EEA22E552E750EF6E0C2AE9D71A
S214009510100EE66EE66A730EE66E0A0EE66E00EB58
S214009520E6FF01EBE6FF41EC8BF046E9000924E19B
S214009530D1EC7FF0010EE66EE66E240EE66EE66A6D
S214009540A1EC5BF044E9010EE66E020EE66E070E35
S214009550E66EE66AA1EC5BF044E9010EE66EE66AAA
S214009560E66AECEC8DF043E90A01080E426F0A0148
S214009570020E416F010E036E5FEF50F0080E485D5D
S21400958001E082D00F0EE66EE66A8E0EE66EF50EEF
S214009590E66E000EE66E730EE66E0A0EE66EB4EC2F
S2140095A08BF047E90C6A060E0C5C14E20C50EA6A73
S2140095B02C0FE96E000EEA22EF50E66E080E0C2421
S2140095C0EA6A730FE96E0A0EEA22E552E750EF6E7A
S2140095D00C2AE9D70F0EE66EE66A730EE66E0A0EE2
S2140095E0E66E00EBE6FF01EBE6FF41EC8BF046E9AA
S2140095F0000949E10C6A100E0C5C14E20F0E0C24F4
S2140096000024E96E000E0120EA6EEF50E66E0C5064
S214009610EA6A350FE96E000EEA22E552E750EF6E71
S2140096200C2AE9D70A01010E3F6F100EE66EE66AB5
S214009630350EE66E000EE66E2F0EE66E0A0EE66E2F
S21400964089EC8BF046E9060EE66EE66A2C0EE66EB0
S214009650000EE66E290EE66E0A0EE66E89EC8BF0BC
S21400966046E9170EE66EE66A290EE66E0A0EE66E06
S214009670000EE66E030EE66E7BEC89F046E900010E
S214009680482B010E036E60D0090E485D5DE10F0E9B
S214009690E66EE66A880EE66EF40EE66E000EE66E7F
S2140096A0730EE66E0A0EE66EB4EC8BF047E90C6AB3
S2140096B0060E0C5C14E20C50EA6A2C0FE96E000EE3
S2140096C0EA22EF50E66E080E0C24EA6A730FE96E83
S2140096D00A0EEA22E552E750EF6E0C2AE9D70F0E83
S2140096E0E66EE66A730EE66E0A0EE66E00EBE6FFC0
S2140096F001EBE6FF41EC8BF046E9000925E1D1ECF1
S2140097007FF0010EE66EE66E180EE66EE66AA1ECD7
S2140097105BF044E9010EE66E020EE66E220EE66E81
S214009720E66AA1EC5BF044E90001482B0A01080E4A
S214009730426F0A01416F210EE66E65EC50F041E97A
S21400974043EC40F0010E036E5FEF50F00A0E485DEA
S2140097505BE1070EE66EE66AA50EE66EF40EE66EB2
S214009760000EE66E730EE66E0A0EE66EB4EC8BF036
S21400977047E90C6A100E0C5C14E20C50EA6A2C0FD7
S214009780E96E000EEA22EF50E66E070E0C24EA6A37
S214009790730FE96E0A0EEA22E552E750EF6E0C2AC6
S2140097A0E9D70C6A030E0C5C14E20C50EA6A320F1E
S2140097B0E96E000EEA22EF50E66E0D0E0C24EA6A01
S2140097C0730FE96E0A0EEA22E552E750EF6E0C2A96
S2140097D0E9D70D0EE66EE66A730EE66E0A0EE66EC4
S2140097E000EBE6FF01EBE6FF41EC8BF046E90009F3
S2140097F00BE11B0EE66E65EC50F041E943EC40F0E1
S2140098000001482B010E036E5FEF50F00B0E485D13
S2140098102BE1080EE66EE66ACA0EE66EF40EE66EFB
S214009820000EE66E730EE66E0A0EE66EB4EC8BF075
S21400983047E9080EE66EE66A730EE66E0A0EE66EF8
S21400984000EBE6FF01EBE6FF41EC8BF046E9000992
S2140098500BE1220EE66E65EC50F041E943EC40F079
S2140098600001482B010E036E5FEF50F00C0E485DB2
S21400987048E1020EE66EE66AAB0EE66EF50EE66EA2
S214009880000EE66E730EE66E0A0EE66EB4EC8BF015
S21400989047E9020EE66EE66A730EE66E0A0EE66E9E
S2140098A0030E00010024856F000E0120866F85C020
S2140098B0E6FF86C0E6FF41EC8BF046E9000921E1B1
S2140098C0060EE66EE66A2C0EE66E000EE66E080ED5
S2140098D000010024876F000E0120886F87C0E6FF16
S2140098E088C0E6FF41EC8BF046E900090AE100017A
S2140098F0482B230EE66EE9DB41E943EC40F0010E0F
S214009900036EDDD30D0E485D32E1482BD1EC7FF0BF
S214009910150EE66EE66AE66A5E0EE66E0A0EE66EFF
S214009920D7EC8BF045E90D0EE66EE66AEB0EE66EBA
S214009930F60EE66E000EE66E5E0EE66E0A0EE66E3C
S214009940B4EC8BF047E9010EE66EE66E5E0EE66E50
S2140099500A0EE66E86EC5EF044E90001482B1D0E0A
S214009960E66EB3DB41E943EC40F0010E036EA7D38D
S2140099700F0E485D09E1482B010EE66EE66AE66EBC
S214009980ECEC8DF043E91CD0100E485D19E1010E99
S214009990E66E49EC8EF041E9000912E00F01015134
S2140099A007E10A01040E426F0A01020E416F06D05B
S2140099B00A010C0E426F0A01020E416F0001482B8D
S2140099C07ED30F0EE66EE66AD30EE66EF50EE66EF4
S2140099D0000EE66E730EE66E0A0EE66EB4EC8BF0C4
S2140099E047E90C6A060E0C5C14E20C50EA6A2C0F6F
S2140099F0E96E000EEA22EF50E66E080E0C24EA6AC4
S214009A00730FE96E0A0EEA22E552E750EF6E0C2A53
S214009A10E9D70F0EE66EE66A730EE66E0A0EE66E7F
S214009A200F0E00010024856F000E0120866F85C092
S214009A30E6FF86C0E6FF41EC8BF046E900091FE131
S214009A40010E036E0001486B0C0EE66E3EDB41E92C
S214009A5043EC40F0D1EC7FF0010EE66EE66E170E9A
S214009A60E66EE66AA1EC5BF044E9010EE66E020ED5
S214009A70E66E220EE66EE66AA1EC5BF044E9020EA4
S214009A80E66EE66AF30EE66EF50EE66E000EE66E1F
S214009A90730EE66E0A0EE66EB4EC8BF047E9020E25
S214009AA0E66EE66A730EE66E0A0EE66E030E0001BA
S214009AB00024856F000E0120866F85C0E6FF86C0F5
S214009AC0E6FF41EC8BF046E9000901E0DCD2090E26
S214009AD00024E96E000E0120EA6EEF50100801E047
S214009AE0D2D20A0E0E6E136A0E500024E96E000ED5
S214009AF00120EA6EEF50100801E1C5D20E280024BE
S214009B00E96E000E0120EA6EEF50100801E1BBD2AC
S214009B100E500024E96E000E0120EA6EEF500D6E26
S214009B200DEB85F085C086F00001856B000E85176D
S214009B30FF0E86170E280024E96E000E0120EA6E3E
S214009B40EF5085110F6E8651106E0E500E2A0024AF
S214009B50E96E000E0120EA6EEF5013260E500E2A14
S214009B600024E96E000E0120EA6EEF5013260E5018
S214009B700024E96E000E0120EA6EEF500D6E0DEB2C
S214009B8085F085C086F0856B000E8517FF0E86175C
S214009B900E280024E96E000E0120EA6EEF508511B3
S214009BA0116E8651126E0E500E2A0024E96E000EBB
S214009BB00120EA6EEF5013260E500E2A0024E96E9E
S214009BC0000E0120EA6EEF5013260C6A11500C5C52
S214009BD0000E12542DE20E500C240024E96E000EE6
S214009BE00120EA6EEF50100818E10E500C24010F09
S214009BF00024E96E000E0120EA6EEF5010080BE11B
S214009C000E500C240024E96E000E0120EA6EEF5080
S214009C1013260E2A0BD00E2A0BD00E500C2400242E
S214009C20E96E000E0120EA6EEF5013260C2ACED7FE
S214009C301328E86C136E100E135C01E10E2A0E500A
S214009C400C240E6E0E500024E96E000E0120EA6E03
S214009C50EF50135C01E017D20E280024E96E000EC8
S214009C600120EA6EEF50100801E00DD2020E0E241D
S214009C700024E96E000E0120EA6EEF50030801E0B2
S214009C8002D2060E0F1801E110501CE0150E0F1838
S214009C9001E1105017E0000110EB85F0866B85514E
S214009CA0146EFF0E0F14156E060EE66EE66A020EB2
S214009CB0E66EE66AD950140FE66EDACFE6FF61EC80
S214009CC052F046E90FEBF3FF10EBF4FFE868F318E9
S214009CD001E1F45001E174D1060EF31801E1F450ED
S214009CE001E121D1FD0EF31801E1F45001E106D1A6
S214009CF0FC0EF31801E1F45001E0C5D1D1EC7FF081
S214009D00150EE66EE66AE66A5E0EE66E0A0EE66E0B
S214009D10D7EC8BF045E9100EE66EE66AF80EE66EB6
S214009D20F60EE66E000EE66E5E0EE66E0A0EE66E48
S214009D30B4EC8BF047E9010EE66EE66E5E0EE66E5C
S214009D400A0EE66E86EC5EF044E90E0E0E6E0E50BF
S214009D500E2A0024E96E000E0120EA6EEFCF15FAF7
S214009D600E500024E96E000E0120EA6EEF500D6ED4
S214009D700DEB85F085C086F00001856B000E85171B
S214009D80FF0E86170E280024E96E000E0120EA6EEC
S214009D90EF5085110A01196F86C01AFA020E0E26B8
S214009DA00E500E2A0024E96E000E0120EA6EEFCF58
S214009DB028FA0E500024E96E000E0120EA6EEFCF5E
S214009DC025FA0A0EE66E040EE66E5E0EE66E0A0EC5
S214009DD0E66E1551E66EE66AF2EC7DF046E9F80EA0
S214009DE0E66E260EE66E010EE66E5E0EE66E0A0E57
S214009DF0E66E15EC8CF045E9E66A030EE66E5E0E3E
S214009E00E66E0A0EE66E12EC5FF044E90A0EE66EA7
S214009E10040EE66E5E0EE66E0A0EE66E0A01285127
S214009E20E66EE66AF2EC7DF046E9F10EE66E260E88
S214009E30E66E010EE66E5E0EE66E0A0EE66E15EC39
S214009E408CF045E9100EE66E030EE66E5E0EE66ECC
S214009E500A0EE66E12EC5FF044E90A0EE66E040E99
S214009E60E66E5E0EE66E0A0EE66E19CAE6FF1ACAC1
S214009E70E6FFF2EC7DF046E9EC0EE66E260EE66EA8
S214009E80010EE66E5E0EE66E0A0EE66E15EC8CF0C1
S214009E9045E9E66A040EE66E5E0EE66E0A0EE66EAD
S214009EA012EC5FF044E90A0EE66E040EE66E5E0EF5
S214009EB0E66E0A0EE66E0A012551E66EE66AF2ECDA
S214009EC07DF046E9E70EE66E260EE66E010EE66EBD
S214009ED05E0EE66E0A0EE66E15EC8CF045E9100E88
S214009EE0E66E040EE66E5E0EE66E0A0EE66E12EC89
S214009EF05FF044E90A01010E006FC5D00E0E0E6E2B
S214009F000E500024E96E000E0120EA6EEF500AE1C2
S214009F100F01006B0A01030E426F0A01416F0A012E
S214009F20020E006FB0D00E0E0E6E0E280024E96EE4
S214009F30000E0120EA6EEFCF86F00001080E856F56
S214009F400E500024E96E000E0120EA6EEF5085C028
S214009F50E7FFE75204E0E8427F0BE706FCE100017A
S214009F608611166E176AFE0E161801E1175027E1C5
S214009F70D1EC7FF0150EE66EE66AE66A5E0EE66ED9
S214009F800A0EE66ED7EC8BF045E9100EE66EE66A32
S214009F90080EE66EF70EE66E000EE66E5E0EE66ED7
S214009FA00A0EE66EB4EC8BF047E9010EE66EE66E3E
S214009FB05E0EE66E0A0EE66E86EC5EF044E963D050
S214009FC00E0E0E6E0E280024E96E000E0120EA6EBC
S214009FD0EFCF86F00001080E856F0E500024E96E64
S214009FE0000E0120EA6EEF5085C0E7FFE75204E05E
S214009FF0E8427F0BE706FCE100018611166E176A41
S21400A000FB0E161801E117500DE1FB0EE66EE66A30
S21400A010010EE66EE66A000EE66E0A0EE66E51DA8F
S21400A02046E930D0FE0E161801E117502BE10F015D
S21400A030000528E116CA49FA00011ECA85F0866B9B
S21400A04085510A014A6F0A011D510A014B6F000132
S21400A05020CA85F0866B85510A014C6F0A011F5194
S21400A0600A014D6F26CA4EFA27CA4FFAFE0EE66E52
S21400A070E66A070EE66EE66A490EE66E0A0EE66EBB
S21400A08020DA46E900D01BD00D0EE66EE66A160E04
S21400A090E66EF60EE66E000EE66E00EBE6FF01EBF1
S21400A0A0E6FF6AEC8BF047E9000908E1060EE66E6B
S21400A0B00CD841E943EC40F0010E036E00D003508B
S21400A0C000D056E9E7CFD9FF1200D9CFE6FFE1CF9F
S21400A0D0D9FF82E900EB46F041E9E7CFD9FF12004D
S21400A0E00001465100D01200010EE66EEEDF41E997
S21400A0F043EC40F00A01016B1200D9CFE6FFE1CF36
S21400A100D9FF85E94FE880EB05F081EB06F0090EF4
S21400A11000010524856F000E0620866F8551076EA8
S21400A1208651086E096A0A6A0B6A0C6A0D6AE50EA1
S21400A1300E6E080E0F6E106A116A126A136AFF0E10
S21400A1400514126E000E0514856FFF0E0614866F3A
S21400A15086C085F0866B8551136E020E0524856FCA
S21400A160000E0620866F8551106E020E0524856F40
S21400A170000E0620866F000E8517FF0E861786C017
S21400A18085F0866B8551116E07EB85F008EB86F03F
S21400A19009EB87F00AEB88F085510B6E07EB85F02C
S21400A1A008EB86F009EB87F00AEB88F0856B876B87
S21400A1B0886B85510C6E07EB85F008EB86F009EB93
S21400A1C087F00AEB88F0856B866B886B85510D6E81
S21400A1D0090EE66EE66AD9500B0FE66EDACFE6FF9A
S21400A1E0730EE66E0A0EE66E89EC8BF046E900EB1F
S21400A1F0E6FF01EBE6FF02EBE6FF03EBE6FF7C0E75
S21400A200E66E0A0EE66E89EC8BF046E950E9E7CF7B
S21400A210D9FF1200D9CFE6FFE1CFD9FF85E900EBE1
S21400A220E6FF01EBE6FF02EBE6FF03EBE6FF65DF8A
S21400A23044E9090E0024E66E730EE66E0A0EE66E1C
S21400A240010EE66E2CEC70F044E941E9E7CFD9FF49
S21400A2501200D9CFE6FFE1CFD9FF85E941E8056ACC
S21400A26000014551452BEA6AF30FE96E0A0EEA2211
S21400A270100EEF6E4551452BEA6AF30FE96E0A0E93
S21400A280EA2201EBEFFF01500526E66A010EE66EB4
S21400A29000EBE6FF01EBE6FF2AEC81F0E552E5CFA6
S21400A2A086F0E7CF85F00001100E851901E1865192
S21400A2B00AE100014551452BEA6AF30FE96E0A0EE2
S21400A2C0EA22100EEF6EE66A010EE66E00EBE6FF7F
S21400A2D001EBE6FF2DEC81F0E552E5CF86F0E7CF07
S21400A2E085F000014551452BEA6AF30FE96E0A0E28
S21400A2F0EA2285C0EFFFE66A010EE66E00EBE6FF97
S21400A30001EBE6FF2DEC81F0E552E5CF86F0E7CFD6
S21400A31085F0000185510526E66A010EE66E00EB23
S21400A320E6FF01EBE6FF2DEC81F0E552E5CF86F087
S21400A330E7CF85F00001100E851901E186510AE18C
S21400A34000014551452BEA6AF30FE96E0A0EEA2230
S21400A350100EEF6E00014551452BEA6AF30FE96EC9
S21400A3600A0EEA2203EBEFFF03500526E66A010E0B
S21400A370E66E02EBE6FF03EBE6FF2AEC81F0E55221
S21400A380E5CF86F0E7CF85F00001100E851901E1D4
S21400A39086510AE100014551452BEA6AF30FE96E42
S21400A3A00A0EEA22100EEF6EE66A010EE66E02EB69
S21400A3B0E6FF03EBE6FF2DEC81F0E552E5CF86F0F5
S21400A3C0E7CF85F000014551452BEA6AF30FE96EA9
S21400A3D00A0EEA2285C0EFFFE66A010EE66E02EB81
S21400A3E0E6FF03EBE6FF2DEC81F0E552E5CF86F0C5
S21400A3F0E7CF85F0000185510526E66A010EE66E78
S21400A40002EBE6FF03EBE6FF2DEC81F0E552E5CF2D
S21400A41086F0E7CF85F00001100E851901E1865120
S21400A4200AE100014551452BEA6AF30FE96E0A0E70
S21400A430EA22100EEF6E055000D042E9E7CFD9FFB2
S21400A4401200D9CFE6FFE1CFD9FF86E942E8066AD7
S21400A450076A0150065C025007582DE203EBE9FF3D
S21400A46004EBEAFFEF50E66E00014551452BEA6A21
S21400A470F30FE96E0A0EEA22E552E750EF6E03EBA1
S21400A480E9FF04EBEAFFEF50002603EBE9FF04EBDD
S21400A490EAFFEF50100809E14551452BEA6AF30F31
S21400A4A0E96E0A0EEA22100EEF6E062A000E07224A
S21400A4B0032A0422CED7005000D043E9E7CFD9FFC5
S21400A4C01200D9CFE6FFE1CFD9FF87E941E8800E39
S21400A4D0E66EE66AE66AF30EE66E0A0EE66ED7ECFF
S21400A4E08BF045E90001456B00EBE6FF01EBE6FF6C
S21400A4F002EBE6FF03EBE6FFACDE44E9076E07EB94
S21400A500E6FF02EBE6FF03EBE6FF04EBE6FF05EBF8
S21400A510E6FF97DF45E9076E0728E86C076E00013F
S21400A5204551452BEA6AF30FE96E0A0EEA2207EB5D
S21400A530EFFF100E075C09E14551452BEA6AF30F61
S21400A540E96E0A0EEA22100EEF6E4551452BEA6AB6
S21400A550F30FE96E0A0EEA22100EEF6E4551452BF8
S21400A560EA6AF30FE96E0A0EEA22030EEF6E455111
S21400A570E66EE66AF30EE66E0A0EE66E4BDE44E91B
S21400A58042E9E7CFD9FF1200D9CFE6FFE1CFD9FFE6
S21400A59081E94BE80A014151070A01E1FFD10A0AA5
S21400A5A045E00B0A43E00A0A3FE0090A3DE00E0ACE
S21400A5B030E00F0A2EE0070A01E093D2D1EC7FF0DC
S21400A5C0010EE66EE66E060EE66EE66AA1EC5BF03F
S21400A5D044E9010EE66E020EE66E070EE66EE66AC9
S21400A5E0A1EC5BF044E9100EE66EE66A070EE66E36
S21400A5F058EC8DF043E9F3CF1DFAF4CF1EFA010EA6
S21400A600E66EE66AE66AECEC8DF043E90A01412B59
S21400A61068D2E66A49EC8EF041E9000904E007ECEE
S21400A62084F00A01412B5DD2412B5BD2080E0F014C
S21400A630445D01E0B2D13AEC84F00A011F6B206B56
S21400A6402A0EE96E0F0EEA6E030EEBCFF3FFF3341D
S21400A6500F012951F31808E6EE50265DEE502759F3
S21400A660EE502859EE50295901E395D19F0EE66E1B
S21400A670E66AE66AE66A2ECFE6FF2FCFE6FF30CF21
S21400A680E6FF31CFE6FF6AEC82F0E552E5CF88F0D0
S21400A690E5CF87F0E5CF86F0E7CF85F0000185515E
S21400A6A0016E8651026E8751036E8851046E260E27
S21400A6B0E96E0F0EEA6EEE500F012A5D0001856FFF
S21400A6C0EE500F012B590001866FEE500F012C59EA
S21400A6D00001876FEE500F012D590001886F85C06D
S21400A6E0E6FF86C0E6FF87C0E6FF88C0E6FF01EB10
S21400A6F0E6FF02EBE6FF03EBE6FF04EBE6FFC4EC47
S21400A70081F0E552E550046EE550036EE550026EAA
S21400A710E750016E07CAE6FF08CAE6FFE66AE66A81
S21400A72001EBE6FF02EBE6FF03EBE6FF04EBE6FFDA
S21400A7306AEC82F0E552E550046EE550036EE55093
S21400A740026EE750016E100EE66E270EE66EE66AA3
S21400A750E66A01EBE6FF02EBE6FF03EBE6FF04EB3F
S21400A760E6FFC4EC81F0E552E550046EE550036E5A
S21400A770E550026EE750016E01EB1FFA02EB20FA7D
S21400A7800A011D512608020E1E5501E304D11F5171
S21400A790DC08050E205504E2DC0E1F6F050E206F48
S21400A7A0360EE96E0F0EEA6E030EEBCFF3FFF334B0
S21400A7B00F013D51F31808E6EE503A5DEE503B5956
S21400A7C0EE503C59EE503D5901E383D03A0EE96E07
S21400A7D00F0EEA6EEE500F01365D366FEE503759AB
S21400A7E0376FEE503859386FEE503959396F080EBA
S21400A7F0E66EE66AE66AE66A32CFE6FF33CFE6FF43
S21400A80034CFE6FF35CFE6FF6AEC82F0E552E5CFBF
S21400A81088F0E5CF87F0E5CF86F0E7CF85F000013A
S21400A8208551016E8651026E8751036E8851046E03
S21400A83036CFE6FF37CFE6FF38CFE6FF39CFE6FF65
S21400A84001EBE6FF02EBE6FF03EBE6FF04EBE6FFB9
S21400A850C4EC81F0E552E550046EE550036EE55019
S21400A860026EE750016E07CAE6FF08CAE6FFE66A10
S21400A870E66A01EBE6FF02EBE6FF03EBE6FF04EB1E
S21400A880E6FF6AEC82F0E552E550046EE550036E92
S21400A890E550026EE750016E100EE66E270EE66E6D
S21400A8A0E66AE66A01EBE6FF02EBE6FF03EBE6FF8D
S21400A8B004EBE6FFC4EC81F0E552E550046EE5508B
S21400A8C0036EE550026EE750016E01EB5DF002EBA1
S21400A8D05EF0060E0A01425D5EE0E80EE66E030ECE
S21400A8E0E66EE66AE66A1FCAE9FF20CAEAFFE934AE
S21400A8F0EA34E96EEA6A01E3EA80010ED890E936A6
S21400A900EA36E806FBE1600EE926000EEA22EECF04
S21400A910E6FFEECFE6FFE66AE66A1FCAE6FF20CA53
S21400A920E6FFE66AE66A6AEC82F0C4EC81F0E5527D
S21400A930E5CF88F0E5CF87F0E5CF86F0E7CF85F066
S21400A94085C01FFA86C020FA0A01960E1F5D000E0B
S21400A950205921E2640EE66EE66AE66AE66A5F0E53
S21400A960E66EE66AE66AE66A5DC0E6FF5EC0E6FF99
S21400A970E66AE66A6AEC82F0C4EC81F0E552E5CF5E
S21400A98088F0E5CF87F0E5CF86F0E7CF85F085C085
S21400A9901FFA86C020FA0A01412BA3D0DEEC58F03D
S21400A9A00A01166F19CAE6FF1ACAE6FFE66AE66AE1
S21400A9B0640EE66EE66AE66AE66A1FCAE6FF20CA24
S21400A9C0E6FFE66AE66A6AEC82F0C4EC81F0E552DD
S21400A9D0E5CF88F0E5CF87F0E5CF86F0E7CF85F0C6
S21400A9E0000185510A6E86510B6E25CAE6FF1DCA08
S21400A9F0E6FF1ECAE6FF0AEBE6FF16CAE6FFBBEC5A
S21400AA0059F045E90A01266F15053BE1530EE66E3F
S21400AA10E66AE66AE66A1FCAE6FF20CAE6FFE66A54
S21400AA20E66A6AEC82F0E552E5CF88F0E5CF87F07B
S21400AA30E5CF86F0E7CF85F000018551056E86519B
S21400AA40066E8751076E8851086E640EE66EE66ADB
S21400AA50E66AE66A05EBE6FF06EBE6FF07EBE6FFCF
S21400AA6008EBE6FFC4EC81F0E552E5CF88F0E5CFD1
S21400AA7087F0E5CF86F0E7CF85F085C01FFA86C061
S21400AA8020FA0F0101510BE10A01231D01E1241DEB
S21400AA9003E1236B246B03D0232B000E2423040E28
S21400AAA00A01165D02E11F6B206B140EE66EE66A65
S21400AAB0150EE66E0A0EE66E000EE66E010EE66EE9
S21400AAC07BEC89F046E9280EE66ED0EC93F041E97F
S21400AAD00F01010E006F0A01040E426F0A01416B5E
S21400AAE000D04CE9E7CFD9FF1200D9CFE6FFE1CF7F
S21400AAF0D9FF81E945E8036A0A014151040A01E1E8
S21400AB00DBD2070A01E1D7D2010A01E183D1030AA9
S21400AB1001E158D1010A01E0E2D2D1EC7FF00A014E
S21400AB201651036E010EE66EE66EEA6A0334FE0BFD
S21400AB30E96EEA360E0EE9260F0EEA22EECFE6FFA3
S21400AB40EECFE6FFA1EC5BF044E9490EE66E0A0E96
S21400AB50E66E1DCAE6FF1ECAE6FF63EC7EF044E919
S21400AB60F350016EF450026E0A015E6BE00EE66E64
S21400AB70260EE66E010EE66E5E0EE66E0A0EE66EB9
S21400AB8015EC8CF045E9490EE66E0A0EE66E5E0E92
S21400AB90E66E0A0EE66EF1EC8BF044E9E66A030E0A
S21400ABA0E66E5E0EE66E0A0EE66E12EC5FF044E9A6
S21400ABB0040E0A01165D2BE00A0EE66E040EE66E23
S21400ABC05E0EE66E0A0EE66E1FCAE6FF20CAE6FFB7
S21400ABD0F2EC7DF046E9F350016EF450026EDB0EA7
S21400ABE0E66E260EE66E010EE66E5E0EE66E0A0E49
S21400ABF0E66E15EC8CF045E9100EE66E030EE66E7A
S21400AC005E0EE66E0A0EE66E12EC5FF044E90A0E81
S21400AC100A01285D01E380D02851000801E37CD0BA
S21400AC20E00EE66E260EE66E010EE66E5E0EE66E32
S21400AC300A0EE66E47EC8CF045E90001280E886F98
S21400AC40F20E896F000E8A6F150EE66EE66AE66AE9
S21400AC5028CAE6FFE66AE66A0AEC82F0E552E5CF25
S21400AC608DF0E5CF8CF0E7CF8BF0000188518B2577
S21400AC70F36E89518C21F46E8A518D21F86EF4CFD3
S21400AC80F7FFF3CFF6FFF6CF85F0F7CF86F0F8CFD5
S21400AC9087F085C0E6FF86C0E6FF87C0E6FF5E0E4B
S21400ACA0E66E0A0EE66E15EC8CF045E9E66A040ED2
S21400ACB0E66E5E0EE66E0A0EE66E12EC5FF044E995
S21400ACC00A0EE66E040EE66E5E0EE66E0A0EE66E81
S21400ACD019CAE6FF1ACAE6FFF2EC7DF046E9F35021
S21400ACE0016EF450026EDB0EE66E260EE66E010E68
S21400ACF0E66E5E0EE66E0A0EE66E15EC8CF045E924
S21400AD00100EE66E040EE66E5E0EE66E0A0EE66E3A
S21400AD1012EC5FF044E94FD0D10EE66E260EE66EDA
S21400AD20010EE66E5E0EE66E0A0EE66E47EC8CF0E0
S21400AD3045E9E66A040EE66E5E0EE66E0A0EE66EFE
S21400AD4012EC5FF044E90A0EE66E040EE66E5E0E46
S21400AD50E66E0A0EE66E19CAE6FF1ACAE6FFF2ECBF
S21400AD607DF046E9F350016EF450026EE00EE66E9A
S21400AD70260EE66E010EE66E5E0EE66E0A0EE66EB7
S21400AD8047EC8CF045E9DB0EE66E260EE66E010E0D
S21400AD90E66E5E0EE66E0A0EE66E15EC8CF045E983
S21400ADA0100EE66E040EE66E5E0EE66E0A0EE66E9A
S21400ADB012EC5FF044E90A01040E006F0A01030E6C
S21400ADC0416F8DD10A014551010A1EE0030A17E0C2
S21400ADD0060A01E01ED00A0146A10ED00A0105515E
S21400ADE008E1D1EC7FF00A010F0E426F0A01416BB9
S21400ADF003D0040E055D00E10A0146910AD00A015F
S21400AE0046A100D0469105D00A0146A100D0469141
S21400AE1000D065D1D1EC7FF00A011651036E010E09
S21400AE20E66EE66EEA6A0334FE0BE96EEA360E0E4E
S21400AE30E9260F0EEA22EECFE6FFEECFE6FFA1EC04
S21400AE405BF044E9490EE66E0A0EE66E1DCAE6FFA2
S21400AE501ECAE6FF63EC7EF044E9F350016EF45040
S21400AE60026E0A015E6BE00EE66E260EE66E010EC0
S21400AE70E66E5E0EE66E0A0EE66E15EC8CF045E9A2
S21400AE80490EE66E0A0EE66E5E0EE66E0A0EE66E7A
S21400AE90F1EC8BF044E9E66A030EE66E5E0EE66EB3
S21400AEA00A0EE66E12EC5FF044E9040E0A01165D27
S21400AEB02BE00A0EE66E040EE66E5E0EE66E0A0ED8
S21400AEC0E66E1FCAE6FF20CAE6FFF2EC7DF046E912
S21400AED0F350016EF450026EDB0EE66E260EE66E42
S21400AEE0010EE66E5E0EE66E0A0EE66E15EC8CF051
S21400AEF045E9100EE66E030EE66E5E0EE66E0A0E70
S21400AF00E66E12EC5FF044E93D0E0A01285D01E3AF
S21400AF1080D02851000801E37CD0E00EE66E260EB5
S21400AF20E66E010EE66E5E0EE66E0A0EE66E47EC06
S21400AF308CF045E90001280E886FF20E896F000E2E
S21400AF408A6F150EE66EE66AE66A28CAE6FFE66AC5
S21400AF50E66A0AEC82F0E552E5CF8DF0E5CF8CF09C
S21400AF60E7CF8BF0000188518B25F36E89518C2139
S21400AF70F46E8A518D21F86EF4CFF7FFF3CFF6FF0B
S21400AF80F6CF85F0F7CF86F0F8CF87F085C0E6FFDE
S21400AF9086C0E6FF87C0E6FF5E0EE66E0A0EE66E29
S21400AFA015EC8CF045E9E66A040EE66E5E0EE66E7B
S21400AFB00A0EE66E12EC5FF044E90A0EE66E040E28
S21400AFC0E66E5E0EE66E0A0EE66E19CAE6FF1ACA50
S21400AFD0E6FFF2EC7DF046E9F350016EF450026EA7
S21400AFE0DB0EE66E260EE66E010EE66E5E0EE66E74
S21400AFF00A0EE66E15EC8CF045E9100EE66E040EB1
S21400B000E66E5E0EE66E0A0EE66E12EC5FF044E941
S21400B0104ED0D10EE66E260EE66E010EE66E5E0E83
S21400B020E66E0A0EE66E47EC8CF045E9E66A040E1C
S21400B030E66E5E0EE66E0A0EE66E12EC5FF044E911
S21400B0400A0EE66E040EE66E5E0EE66E0A0EE66EFD
S21400B05019CAE6FF1ACAE6FFF2EC7DF046E9F3509D
S21400B060016EF450026EE00EE66E260EE66E010EDF
S21400B070E66E5E0EE66E0A0EE66E47EC8CF045E96E
S21400B080DB0EE66E260EE66E010EE66E5E0EE66ED3
S21400B0900A0EE66E15EC8CF045E9E66A040EE66EDE
S21400B0A05E0EE66E0A0EE66E12EC5FF044E90A01EA
S21400B0B0030E416F14D013D00A014551040A01E073
S21400B0C00DD00A0146A107D0D1EC7FF00A01090E87
S21400B0D0426F0A01416B0A01469100D000D046E952
S21400B0E0E7CFD9FF1200D9CFE6FFE1CFD9FF85E938
S21400B0F044E80A011D51056E1E51066E200E055CC1
S21400B100030E06580DE202EBE9FF03EBEAFF1CCE46
S21400B110EFFF00EBE9FF01EBEAFF7CCEEFFF45D047
S21400B1200550FB08040E06540DE202EBE9FF03EBA4
S21400B130EAFF7BCEEFFF00EBE9FF01EBEAFFDBCE99
S21400B140EFFF33D0050EE66EE66A0001200E055CC2
S21400B150856F030E0658866F85C0E6FF86C0E6FF3D
S21400B1602AEC81F0E552E550086EE750076E1C0E9B
S21400B1700724E96E0E0E0820EA6EEF50E66E02EB2C
S21400B180E9FF03EBEAFFE552E750EF6E7C0E07247B
S21400B190E96E0E0E0820EA6EEF50E66E00EBE9FF51
S21400B1A001EBEAFFE552E750EF6E05EBF3FF06EB27
S21400B1B0F4FF00D045E9E7CFD9FF1200D9CFE6FF6C
S21400B1C0E1CFD9FF81E94AE8DE0EE66EE66A0001C5
S21400B1D0B00E886FEE0E896F000E8A6FDE0EE66E7A
S21400B1E0E66AE66A25CAE6FFE66AE66A0AEC82F0DE
S21400B1F0E552E5CF8DF0E5CF8CF0E7CF8BF0000180
S21400B20088518B25856F89518C21866F8A518D21B7
S21400B210876F85C0E6FF86C0E6FF87C0E6FF000EA4
S21400B220E66E0E0EE66EB4EC8BF047E90E010851A2
S21400B230036E0951046E19CAE6FF1ACAE6FFE66AEB
S21400B240E66A640EE66EE66AE66AE66A1FCAE6FF25
S21400B25020CAE6FFE66AE66A6AEC82F0C4EC81F091
S21400B260E552E5CF88F0E5CF87F0E5CF86F0E7CF6B
S21400B27085F000018551076E8651086E0750FF085D
S21400B280000E085404E20A012169226B04D007EB81
S21400B29021FA08EB22FAD950020FE66EDACFE6FF63
S21400B2A0D950010FE66EDACFE6FF1DDF44E9F35012
S21400B2B0056EF450066E0A010150215D000E2259FB
S21400B2C047E30E010A51055C0B51065824E206516D
S21400B2D0055C075106580CE30E510001856F866B1E
S21400B2E085510A01215D000186510A01225913E2A7
S21400B2F00E010251055C0351065810E30F51000180
S21400B300876F886B0A0121510001875D0A0122516F
S21400B3100001885903E2000E2AD01AD00E0102510D
S21400B320055C0351065808E20550045D06500559B1
S21400B33003E2040E1CD00CD00251055C03510658E3
S21400B34007E30651055C0751065802E2010E0FD0CE
S21400B3500550035C0650045808E20A010250215DBD
S21400B360000E225902E2030E02D0020E00D04BE974
S21400B370E7CFD9FF1200D9CFE6FFE1CFD9FF86E9A4
S21400B38046E84C0E015C040E025804E24C0E016EB8
S21400B390040E026E0150FB08040E025404E2FB0E7B
S21400B3A0016E040E026EDE0EE66EE66A0001B00E58
S21400B3B0886FEE0E896F000E8A6FDE0EE66EE66A06
S21400B3C0E66A00EBE6FFE66AE66A0AEC82F0E55219
S21400B3D0E5CF8DF0E5CF8CF0E7CF8BF000018851FC
S21400B3E08B25856F89518C21866F8A518D21876FB9
S21400B3F085C0E6FF86C0E6FF87C0E6FF000EE66E65
S21400B4000E0EE66EB4EC8BF047E9050EE66EE66AC5
S21400B4100001200E015C856F030E0258866F85C002
S21400B420E6FF86C0E6FF2AEC81F0E552E5CFEAFFAC
S21400B430E7CFE9FF1C0EE9260E0EEA22EF500B6E50
S21400B4400B5002E1010E0B6E0BEBE6FFE66AE66AB6
S21400B450E66A550EE66EE66AE66AE66A03EBE6FF1D
S21400B460E66AE66AE66A6AEC82F0C4EC81F0E552C7
S21400B470E5CF88F0E5CF87F0E5CF86F0E7CF85F01B
S21400B48000018551066E8651076E8751086E8851F9
S21400B490096E0450030A01E1AFD0070A01E1ACD0FF
S21400B4A0060A58E0020A03E0010A01E0A5D00F0EE2
S21400B4B0E66EE66AE66AE66A06EBE6FF07EBE6FF96
S21400B4C008EBE6FF09EBE6FF520EE66EE66AE66A72
S21400B4D0E66A6AEC82F0E552E5CF8CF0E5CF8BF0B9
S21400B4E0E5CF8AF0E7CF89F00F0E0001895F190ECD
S21400B4F08A5B000E8B5B8C5B89C0E6FF8AC0E6FF2A
S21400B5008BC0E6FF8CC0E6FF66EC81F0E552E5CF27
S21400B51088F0E5CF87F0E5CF86F0E7CF85F000012D
S21400B5208551066E8651076E8751086E8851096EE2
S21400B530D890095008E6250E065C000E0758000E47
S21400B5400858000E095805E2250E066E076A086AB6
S21400B550096A57D00F0EE66EE66AE66AE66A06EBFA
S21400B560E6FF07EBE6FF08EBE6FF09EBE6FF240E37
S21400B570E66EE66AE66AE66A6AEC82F0E552E5CFCF
S21400B5808CF0E5CF8BF0E5CF8AF0E7CF89F0D80EC8
S21400B5900001895F090E8A5B000E8B5B8C5B89C09D
S21400B5A0E6FF8AC0E6FF8BC0E6FF8CC0E6FF66ECCF
S21400B5B081F0E552E5CF88F0E5CF87F0E5CF86F05D
S21400B5C0E7CF85F000018551066E8651076E8751DC
S21400B5D0086E8851096E093408E206502508000EE8
S21400B5E00754000E0854000E095405E2250E066E98
S21400B5F0076A086A096A05D0066A076A086A096A55
S21400B60000D0093405E3066A076A086A096A10D09A
S21400B610093408E206507808000E0754000E085455
S21400B620000E095405E2780E066E076A086A096A73
S21400B630780EE66EE66AE66AE66A640EE66EE66A25
S21400B640E66AE66A06EBE6FF07EBE6FF08EBE6FFD0
S21400B65009EBE6FF6AEC82F066EC81F0E552E5CF96
S21400B66088F0E5CF87F0E5CF86F0E7CF85F00001DC
S21400B6708551066E8651076E8751086E8851096E91
S21400B680065000D047E9E7CFD9FF1200D9CFE6FF32
S21400B690E1CFD9FF82E94EE8026A036A046A056AC6
S21400B6A0066A076A086A096A0A6A0B6A0C6A0D6AF9
S21400B6B00F6A0050E824010F006E0E6A140E0E5C2E
S21400B6C012E2E66AD950020FE66EDACFE6FF0FEB1B
S21400B6D0E6FF00EBE6FF78EC80F045E9060E0F2467
S21400B6E00F6E0E2AEBD74FE9E7CFD9FF1200D9CF5E
S21400B6F0E6FFE1CFD9FF82E948E8026A036A046AF6
S21400B700056A066A076A096A020E0024006E086A5D
S21400B710140E085C12E2E66AD950020FE66EDACF23
S21400B720E6FF09EBE6FF00EBE6FFD3EC80F045E929
S21400B730060E0924096E082AEBD749E9E7CFD9FF98
S21400B7401200D9CFE6FFE1CFD9FF85E964E801EB27
S21400B750E6FF9CDF41E90150E824010F016E056A0F
S21400B760086A096A0A01025101E0A6D0020EE66ED6
S21400B770E66A0001D00E896F130E8A6F010E8B6F7A
S21400B780020EE66EE66AE66A02EBE6FF03EBE6FF0B
S21400B790E66A0AEC82F0E552E5CF8EF0E5CF8DF052
S21400B7A0E7CF8CF00001895100018C250001856FE0
S21400B7B000018A5100018D210001866F00018B5126
S21400B7C000018E210001876F0001886B85C0E6FFAF
S21400B7D086C0E6FF87C0E6FFD9500C0FE66EDACFCC
S21400B7E0E6FFB4EC8BF047E9020EE66EE66A0CEB79
S21400B7F0E6FF0DEBE6FF2AEC81F0E552E5500B6E16
S21400B800E7500A6E020EE66EE66A0001360E896F93
S21400B810140E8A6F010E8B6F020EE66EE66AE66AFB
S21400B820055000010A248F6F000E0B20906F8FC00A
S21400B830E6FF90C0E6FFE66A0AEC82F0E552E5CF46
S21400B8408EF0E5CF8DF0E7CF8CF000018951000136
S21400B8508C250001856F00018A5100018D210001B1
S21400B860866F00018B5100018E210001876F000159
S21400B870886B85C0E6FF86C0E6FF87C0E6FFD95026
S21400B8800C0FE66EDACFE6FFB4EC8BF047E90C500F
S21400B8900D1001E110D0800E0C5C000E0D5804E275
S21400B8A0060E0824086E03D00C0E0824086E052821
S21400B8B0056E0400A7D781D00A01020501E07DD0FD
S21400B8C0020EE66EE66A0001700E886F0B0E896F38
S21400B8D0010E8A6F020EE66EE66AE66A02EBE6FF85
S21400B8E003EBE6FFE66A0AEC82F0E552E5CF8DF060
S21400B8F0E5CF8CF0E7CF8BF00001885100018B2557
S21400B9000001856F0001895100018C210001866FBE
S21400B91000018A5100018D210001876F85C0E6FF76
S21400B92086C0E6FF87C0E6FFD9500C0FE66EDACF7A
S21400B930E6FFB4EC8BF047E98CEB0AF08DEB0BF0EE
S21400B940010EE66EE66A0001D60E886F0B0E896F52
S21400B950010E8A6F055000010A248B6F000E0B2023
S21400B9608C6F00018D6B0001885100018B25000152
S21400B970856F0001895100018C210001866F00014E
S21400B9808A5100018D210001876F85C0E6FF86C0C1
S21400B990E6FF87C0E6FFD9500E0FE66EDACFE6FF69
S21400B9A0B4EC8BF047E90E5001E107D0060E0824F0
S21400B9B0086E0528056E0400C3D7010E001407E0C4
S21400B9C0780ED8800854FE0BE842096E0CD0100E94
S21400B9D0001405E0780ED8800854096E04D0800E56
S21400B9E0001401E0096A056A0A01025101E0FBD071
S21400B9F0020EE66EE66A0001360E896F140E8A6F36
S21400BA00010E8B6F020EE66EE66AE66A05500001CE
S21400BA100A248F6F000E0B20906F8FC0E6FF90C039
S21400BA20E6FFE66A0AEC82F0E552E5CF8EF0E5CF57
S21400BA308DF0E7CF8CF00001895100018C250001C4
S21400BA40856F00018A5100018D210001866F00017B
S21400BA508B5100018E210001876F0001886B85C025
S21400BA60E6FF86C0E6FF87C0E6FFD9500C0FE66EFD
S21400BA70DACFE6FFB4EC8BF047E90C500D1002E18C
S21400BA80B1D0ACD00C507F08000E0D5452E2800EA0
S21400BA900C5E000E0D5A180EE66EE66A0001120ED7
S21400BAA0896FC10E8A6F000E8B6F180EE66EE66AFF
S21400BAB0E66A0CEBE6FF0DEBE6FFE66A0AEC82F0C0
S21400BAC0E552E5CF8EF0E5CF8DF0E7CF8CF00001A4
S21400BAD0895100018C250001856F00018A51000103
S21400BAE08D210001866F00018B5100018E2100011F
S21400BAF0876F0001886B85C0E6FF86C0E6FF87C0BB
S21400BB00E6FFD9500F0FE66EDACFE6FFB4EC8BF007
S21400BB1047E9D9500F0FE66EDACFE6FF09EBE6FFEE
S21400BB2001EBE6FFABEC80F044E90C0E0924096E4D
S21400BB3055D07F0E0C5C000E0D5850E2200E0C5EA9
S21400BB40000E0D5A0C0EE66EE66A00013C0E886F7B
S21400BB50EA0E896F000E8A6F0C0EE66EE66AE66ADB
S21400BB600CEBE6FF0DEBE6FFE66A0AEC82F0E55228
S21400BB70E5CF8DF0E5CF8CF0E7CF8BF00001885154
S21400BB8000018B250001856F0001895100018C2181
S21400BB900001866F00018A5100018D210001876F28
S21400BBA085C0E6FF86C0E6FF87C0E6FFD9500F0FC8
S21400BBB0E66EDACFE6FFB4EC8BF047E9E66AD950DA
S21400BBC00F0FE66EDACFE6FF09EBE6FF01EBE6FFC6
S21400BBD078EC80F045E9060E0924096E0528056E06
S21400BBE0040006D78FD00A01020501E08BD0010EB3
S21400BBF0E66EE66A0001D60E886F0B0E896F010EA0
S21400BC008A6F055000010A248B6F000E0B208C6F84
S21400BC1000018D6B0001885100018B250001856FA6
S21400BC200001895100018C210001866F00018A51B4
S21400BC3000018D210001876F85C0E6FF86C0E6FF04
S21400BC4087C0E6FFD9500E0FE66EDACFE6FFB4ECFB
S21400BC508BF047E90E5002E155D050D00E501F0829
S21400BC604DE2200E0E5E0C0EE66EE66A00013C0EFD
S21400BC70886FEA0E896F000E8A6F0C0EE66EE66A13
S21400BC80E66A0EEBE6FFE66AE66A0AEC82F0E55242
S21400BC90E5CF8DF0E5CF8CF0E7CF8BF00001885133
S21400BCA000018B250001856F0001895100018C2160
S21400BCB00001866F00018A5100018D210001876F07
S21400BCC085C0E6FF86C0E6FF87C0E6FFD9500F0FA7
S21400BCD0E66EDACFE6FFB4EC8BF047E9E66AD950B9
S21400BCE00F0FE66EDACFE6FF09EBE6FF01EBE6FFA5
S21400BCF078EC80F045E9060E0924096E0528056EE5
S21400BD00040075D765E9E7CFD9FF1200D9CFE6FF63
S21400BD10E1CFD9FF85E950E802EBE6FF03EBE6FF4B
S21400BD2060EC8CF042E9F350056E055001E176D0E8
S21400BD30066A0150E824010F016E010E00140BE0A4
S21400BD400001780E856F060E0502F350855DE8400B
S21400BD507F0B066E10D0100E001409E00001780E5E
S21400BD60856F060E0502F350855D066E04D0000E44
S21400BD70001401E0066A076A0550075C4FE20750A8
S21400BD800224E96E000E0320EA6EEF50E00F086E04
S21400BD900C0EE66EE66A00013C0E886FEA0E896FAE
S21400BDA0000E8A6F0C0EE66EE66AE66A08EBE6FFA1
S21400BDB0E66AE66A0AEC82F0E552E5CF8DF0E5CF5A
S21400BDC08CF0E7CF8BF0000188518B25856F895169
S21400BDD08C21866F8A518D21876F85C0E6FF86C0CD
S21400BDE0E6FF87C0E6FFD950090FE66EDACFE6FF1A
S21400BDF0B4EC8BF047E900EBE6FFD950090FE66E8E
S21400BE00DACFE6FF06EBE6FF01EBE6FF78EC80F024
S21400BE1045E9060E0624066E072AAED751E9E7CF97
S21400BE20D9FF1200D9CFE6FFE1CFD9FF85E94CE86C
S21400BE30056A076A07500224E96E000E0320EA6EC0
S21400BE40EF5003E0052A072AF5D7066A055001E1F8
S21400BE5075D0020E0124016E010E00140BE00001E5
S21400BE60780E856F060E0502F350855DE8407F0B61
S21400BE70066E10D0100E001409E00001780E856FD3
S21400BE80060E0502F350855D066E04D0000E001403
S21400BE9001E0066A076A0550075C50E20750022474
S21400BEA0E96E000E0320EA6EEF50F00F086E060EE5
S21400BEB0E66EE66A0001480E886F1F0E896F010E57
S21400BEC08A6F060EE66EE66AE66A08EBE6FFE66A44
S21400BED0E66A0AEC82F0E552E5CF8DF0E5CF8CF00D
S21400BEE0E7CF8BF0000188518B25856F89518C2117
S21400BEF0866F8A518D21876F85C0E6FF86C0E6FF74
S21400BF0087C0E6FFD950090FE66EDACFE6FFB4EC3D
S21400BF108BF047E90F6A00EBE6FFD950090FE66E93
S21400BF20DACFE6FF06EBE6FF01EBE6FFD3EC80F0A8
S21400BF3045E9060E0624066E072AADD74DE9E7CF7B
S21400BF40D9FF1200D9CFE6FFE1CFD9FF82E948E852
S21400BF50005031E1080EE66EE66AE66AD950020F36
S21400BF60E66EDACFE6FFD7EC8BF045E9D950020F44
S21400BF70E66EDACFE6FF780EE66E040EE66E57EC57
S21400BF8080F044E9D950020FE66EDACFE6FF780E6D
S21400BF90E66E050EE66E57EC80F044E9D950020FC7
S21400BFA0E66EDACFE6FF780EE66E060EE66E57EC25
S21400BFB080F044E987D0010E001412E0080EE66E09
S21400BFC0E66A460EE66E280EE66E010EE66ED9505E
S21400BFD0020FE66EDACFE6FFB4EC8BF047E90CD042
S21400BFE0080EE66EE66AE66AD950020FE66EDACF0B
S21400BFF0E6FFD7EC8BF045E9D950020FE66EDACFB4
S21400C000E6FF780EE66E040EE66E57EC80F044E926
S21400C010020E001412E0080EE66EE66A4E0EE66E9B
S21400C020280EE66E010EE66ED950020FE66EDACFE7
S21400C030E6FFB4EC8BF047E90CD0080EE66EE66A35
S21400C040E66AD950020FE66EDACFE6FFD7EC8BF041
S21400C05045E9D950020FE66EDACFE6FF780EE66EB7
S21400C060050EE66E57EC80F044E9040E001412E06C
S21400C070080EE66EE66A560EE66E280EE66E010EB0
S21400C080E66ED950020FE66EDACFE6FFB4EC8BF020
S21400C09047E90CD0080EE66EE66AE66AD950020F4B
S21400C0A0E66EDACFE6FFD7EC8BF045E9D950020F03
S21400C0B0E66EDACFE6FF780EE66E060EE66E57EC14
S21400C0C080F044E949E9E7CFD9FF1200D9CFE6FF6F
S21400C0D0E1CFD9FF84E941E8E66A02EBE6FF37ECF8
S21400C0E080F042E9800E046E04500FE000EBE9FF9A
S21400C0F001EBEAFFEFCFE6FFB5EC7FF041E9002A5F
S21400C100000E012204000406EFD742E9E7CFD9FF6C
S21400C110120000F0909090FC909090F00000000FBD
S21400C1200404041F24242427203800881000F080EC
S21400C13040FC2010F000001009011F20202F2024B2
S21400C14027300000F050505458505050F000000077
S21400C1503F2121110305091925220020E03C20E09B
S21400C1600808C828180000221508162101213F01DA
S21400C1700101003094B4B414FC14B4B4943000023A
S21400C1803A0A0A3A0E3A0A2A3A0200101090503436
S21400C190181050901010002021110F0101011F21CE
S21400C1A02338000000F848484848444444400020EB
S21400C1B01807003E12121212123E0004F4949494D1
S21400C1C0FC949494F40400043F0404040704242418
S21400C1D03F04008810F808E808F800F000FC00109B
S21400C1E00927100F10270007203F0044C8000090C2
S21400C1F0909010FC101400003F1000101F08000F55
S21400C20010380008E8A8A8A8F8A8A8A8E8080020F9
S21400C210272A12122F2222222320002020FC202050
S21400C220D04CE858C0000002223F0124170C070C2F
S21400C2301724004040FC40000888E81888080010D2
S21400C240100F080201003F0000030020A0FCA02001
S21400C25010AC48A818000002013F00013F1212125D
S21400C2603F010010884400E42434AC2424E4001188
S21400C2700804202710080708102700000888080868
S21400C280F808080808000020203F20203F21212130
S21400C290212000101090701C1010D01010100002FA
S21400C2A0013F002022223F2222200044C80088A806
S21400C2B0A8FCA8A8A88800003F10003F0A0A0A2A7F
S21400C2C03F00004848F84408D0407C4050C800046E
S21400C2D0033F02003F050505253F008040F00CF0B7
S21400C2E020E8A8A8B8200000003F000F2124140F63
S21400C2F014240020A0FC2040A0908C90A0400002B7
S21400C300013F012438222C302E200084880010D0D3
S21400C310B09CD090901000201F20242424243F247A
S21400C3202424002020FC2090B0D498D0B0900002A6
S21400C330223F01222A2E13122E220000F010109007
S21400C3407C901010F00000003F0002010000232047
S21400C3503F000080A8C88CC8A880F808C83800002D
S21400C3603E1212123E003F0808070060DC501040E4
S21400C370507C50507C5000023F120A003F151515A5
S21400C380153F0044C80080BCA4A4A4BC80000000E4
S21400C3901F0A22120A070A12222200D0B0DC90A03E
S21400C3A090A8242810A00004043F023F0A3F000F74
S21400C3B0203F0000000404C830C000000000002039
S21400C3C0100806010001060810200040F00C00E8E6
S21400C3D0A8BCA8A8E80800003F00203F2A2A2A2A6E
S21400C3E03F200020A0FCA01090541850901000028F
S21400C3F0013F00212017081720210010208040F060
S21400C4009C90F498901000100804003F24243F24C9
S21400C41024200000F090909010FC1014981000203B
S21400C4201F00082F100B040A113C001010F010100B
S21400C43020FC202020E00008080724140C0300201D
S21400C440201F008040382020FC20202000000022F2
S21400C45022120A0603060A12222200F808E808F842
S21400C46040B02C20E0200027100F102720170814BB
S21400C4702320008088A8CCF88888F8CCA8880000FC
S21400C480003E2A2A2A2A2A2A3E000044C800E4A49B
S21400C490ACF4B4ACE00000201F202F22222F222A6A
S21400C4A02F200028A8E8BCA8B8A87C2828280002C6
S21400C4B0023E2A2B3E2A2A3E0306002020A8702091
S21400C4C0FC2070A8202000242514140C060C14143C
S21400C4D02524004048F84848F84800F800FC0022A8
S21400C4E0292828283D2828282A23005868B8AC6818
S21400C4F018E434AC24E400023D14143D0227100F67
S21400C500102700B0909090949890909090B0002053
S21400C510100E10203F24242424200044C8008494B5
S21400C520F49C9494F48400001F08003E1212121229
S21400C5303E000010505050545850505050100000BC
S21400C5403D151515151515153D000008C8485C481D
S21400C550E8485C48C80800242714140C070C141478
S21400C56027240000E0202020FC202020E0000000FF
S21400C570070202023F020202070000101070901429
S21400C58018109070101000202010110A040A1110C4
S21400C59020200000F80828A8A82CA8682808002052
S21400C5A01F020202223F02020A0600088878484854
S21400C5B0C800F00000FC000120110A040300072058
S21400C5C0203F008080BCA4A4A4A4A4BC808000005B
S21400C5D000060504040424241C00001014D830802F
S21400C5E008F8080808F80002013F01221807002092
S21400C5F0201F0020E03CE00060504C4060C000225D
S21400C600150837003F1111113F00008040F00C0064
S21400C61000FC804020100000003F0004021F202085
S21400C62020380008C81CE808886848DC484800200D
S21400C6303D24253C243C24243D200000C8A88888AE
S21400C6408888F888888000101008080422213F0097
S21400C650000000D0545850D020FC20E83020001BAA
S21400C660223E0A13201F001F2038006050CC2040B6
S21400C67050FC506050480012130A08023F1515156A
S21400C6803F0000E828F828F828E8008888F8003FE7
S21400C69015141414153F001F20380090101010F0C9
S21400C6A000202020FC2000201B040B300001262048
S21400C6B03F000018084848484C48484808180022D8
S21400C6C022120E0202021E22223200382020E03CF5
S21400C6D020202428202000100826211315091513D1
S21400C6E020200044C800202428E028242000002021
S21400C6F01F2131292523252931210020A860FCA0EF
S21400C7002840BC20E02000252C16152C01201708F8
S21400C7101720002020FC2000F8A8A8E8A8B80002EF
S21400C720223F2118073E1213123E0020E8A8A8A8B0
S21400C730F8A4A4A4E42000202B2A2A2A3F2A2A2A86
S21400C7402B200080A8C88CC8A800F848C844001051
S21400C7500A223F022A100F003F000000000000FCE3
S21400C76040404040400000202020203F2020202045
S21400C77020200008100080601CD0101050300008E8
S21400C780042210080601060810200000007C5454FD
S21400C7905454547C00000021110D11213F252525FD
S21400C7A02521004444242414FC04141424440000CA
S21400C7B03E121212121212123E000000303884C4CA
S21400C7C0783000000000000000001B1B0000000086
S21400C7D000000008F848F8082428E028240000088C
S21400C7E00F093F25110D030D112100000848685858
S21400C7F0C8C4442404000020120A03233E02020A8E
S21400C8001326008040F00C007848C84878000000E6
S21400C810003F001109053F0509110040F00CE040FB
S21400C820502C28A8584000003F000F202A2A251424
S21400C83012080008F84848F80810F010F000000841
S21400C8400F09093F0420130C13200040881000C86D
S21400C85050407C4050C800100804003F0505050500
S21400C860253F00B0909090F49890909090B0002063
S21400C870202615140808141320000000E0A0A0A02D
S21400C880BCA8A8A8E80800080B0A0A0A3E0A0A0A72
S21400C8900B08000848485C48C8485C48480800043C
S21400C8A0040506043F04060504040000F8A8A8A82A
S21400C8B0F8A8A8A8F8000012120A06023F02060A04
S21400C8C01212006050CC202010AC48A818000012AD
S21400C8D0130A0801090A1214210100A428A000B8AE
S21400C8E0A0A0BCA0A0B80013140B003E021E031E9E
S21400C8F0223E006050CC2000905034185090001219
S21400C900130A0A20110F011F2133008090485C286B
S21400C9102828584880800000003F15151F15153F31
S21400C9200000000000000000000000000000000002
S21400C930000B0700000000000000002020FC200084
S21400C9403010D41810300002223F012021170909A8
S21400C95017210008C8B88800D04CC86858C0000125
S21400C9601F081F201F051F05253F004044C8000064
S21400C9700000FC0000000000001F08241807000745
S21400C980182000808888F884848080FC80800000DE
S21400C990201807000000003F0000006050CC200870
S21400C9A0F80808C8B8800012130A2A1807221408C4
S21400C9B01423000000F090909498909090F000203F
S21400C9C018073E1212121212123E008040F00C603F
S21400C9D08004180080700000003F0020110A040A3E
S21400C9E0112000809C94949CE09C94B4DC8000040D
S21400C9F03C2A2A3900392A2A3C0400E000FC201090
S21400CA0090BC48A888E0002118071822120E021EC3
S21400CA102232000C847C242424242424240C0008A1
S21400CA2009090909092929211F00D9CFE6FFE1CF05
S21400CA30D9FF81E943E80A014151110A01E196D282
S21400CA40010A01E180D21F0A01E142D2010A01E196
S21400CA50A0D1050A01E19AD1070A01E197D1010A9E
S21400CA6001E194D1070A01E187D1030A01E13ED131
S21400CA70010A01E104D10F0A01E1D6D0030A01E15F
S21400CA80D0D0010A01E1CDD0030A01E1CAD0050ADF
S21400CA9001E1BDD0010A59E0030A2AE0010A01E0DB
S21400CAA066D220EC94F0D1EC7FF0010EE66E010E1B
S21400CAB0E66E110EE66EE66AA1EC5BF044E9010E46
S21400CAC0E66E020EE66E070EE66EE66AA1EC5BF018
S21400CAD044E9020EE66EE66AE66AECEC8DF043E99F
S21400CAE00A01412BE66AD3EC6FF041E904003FD21D
S21400CAF0E66A49EC8EF041E9000925E0949C949E94
S21400CB000A01116B126B0A010F6B106B0A010D6B99
S21400CB100E6B0A01100E0B6F270E0C6F0A01100E1B
S21400CB20096F270E0A6F0A01100E076F270E086F8F
S21400CB30829C829E010EE66EE66AE66AECEC8DF05A
S21400CB4043E90A01412B040012D2E66A49EC8EF052
S21400CB5041E900095AE0100EE66EE66A070EE66E38
S21400CB6058EC8DF043E9F3CF1DFAF4CF1EFA100E01
S21400CB70E66EE66A040EE66E58EC8DF043E9F3CFF7
S21400CB801BFAF4CF1CFA1DCAE6FF1ECAE6FFE66AC9
S21400CB90E66A800EE66E960EE66E980EE66EE66A1C
S21400CBA0C4EC81F0E552E5CF88F0E5CF87F0E5CF1D
S21400CBB086F0E7CF85F085C00BFA86C00CFA1BCA54
S21400CBC0E6FF1CCAE6FFE66AE66A800EE66E960E8A
S21400CBD0E66E980EE66EE66AC4EC81F0E552E5CFA6
S21400CBE088F0E5CF87F0E5CF86F0E7CF85F085C003
S21400CBF009FA86C00AFA828C010EE66EE66AE66AD2
S21400CC00ECEC8DF043E90A01412B0400B0D1E66A52
S21400CC1049EC8EF041E9000902E00A01412B0400CC
S21400CC20A6D1C4EC52F0A3D11FCAE6FF20CAE6FF85
S21400CC30E66AE66A400EE66E4B0EE66E4C0EE66E52
S21400CC40E66AC4EC81F0E552E5CF88F0E5CF87F0E0
S21400CC50E5CF86F0E7CF85F085C007FA86C008FAEC
S21400CC600A010D6B0E6B0A010F6B106B0A01116B3C
S21400CC70126B0A01136B829C0A01412B78D1D2EC0D
S21400CC807DF00A01146F0A01280E0B5D230E0C5965
S21400CC901EE30A010B51F8082A0E0C5518E30A0188
S21400CCA0280E095D230E0A5912E30A010951F808F5
S21400CCB02A0E0A550CE30A01280E075D230E0859B2
S21400CCC006E30A010751F8082A0E085504E20A018D
S21400CCD00F0E416F09D0030EE66EE66AE66AECECCC
S21400CCE08DF043E90A01412B040041D1E66A49EC84
S21400CCF08EF041E900093EE0100EE66EE66A070E89
S21400CD00E66E58EC8DF043E9F3CF1DFAF4CF1EFA29
S21400CD10100EE66EE66A040EE66E58EC8DF043E9F9
S21400CD20F3CF1BFAF4CF1CFA0A01E50E1D5D030EC5
S21400CD301E591DE30A011D51EB08030E1E5517E38D
S21400CD400A01E50E1B5D030E1C5911E30A011B5177
S21400CD50EB08030E1C550BE30A01412B030EE66E8F
S21400CD60E66AE66AECEC8DF043E9828C03D00A01B1
S21400CD700F0E416F0400FBD0E66A49EC8EF041E9E5
S21400CD80000902E00A01412B0400F1D0C4EC52F085
S21400CD90EED00A01EF0E1F5D010E205901E294D07D
S21400CDA00A011F51F908010E205501E28DD0D1EC81
S21400CDB07FF0010EE66E010EE66E0B0EE66EE66A7C
S21400CDC0A1EC5BF044E9490EE66E0A0EE66E1DCA5B
S21400CDD0E6FF1ECAE6FF63EC7EF044E9F350026EFF
S21400CDE0F450036E150EE66EE66AE66A5E0EE66EB2
S21400CDF00A0EE66ED7EC8BF045E9BE0EE66E260E02
S21400CE00E66E010EE66E5E0EE66E0A0EE66E15EC39
S21400CE108CF045E9490EE66E0A0EE66E5E0EE66E8C
S21400CE200A0EE66EF1EC8BF044E9010EE66E030E98
S21400CE30E66E5E0EE66E0A0EE66E12EC5FF044E9F3
S21400CE400A0EE66E040EE66E5E0EE66E0A0EE66EDF
S21400CE501FCAE6FF20CAE6FFF2EC7DF046E9F35073
S21400CE60026EF450036EB90EE66E260EE66E010EE6
S21400CE70E66E5E0EE66E0A0EE66E15EC8CF045E982
S21400CE80010EE66E040EE66E5E0EE66E0A0EE66EA8
S21400CE9012EC5FF044E90E0EE66EE66A070EE66EEA
S21400CEA00A0EE66E400EE66E000EE66E7BEC89F02D
S21400CEB046E9010EE66EE66AE66AECEC8DF043E9BA
S21400CEC00A01100E416F03D00A010F0E416F4FD0BA
S21400CED0D1EC7FF0010EE66E010EE66E0C0EE66EED
S21400CEE0E66AA1EC5BF044E90A0EE66E040EE66E16
S21400CEF05E0EE66E0A0EE66E1FCAE6FF20CAE6FF64
S21400CF00F2EC7DF046E9F350026EF450036EB90E73
S21400CF10E66E260EE66E010EE66E5E0EE66E0A0EF5
S21400CF20E66E15EC8CF045E9010EE66E040EE66E34
S21400CF305E0EE66E0A0EE66E12EC5FF044E90A013B
S21400CF40110E416F14D00A0105510CE1E66A49EC56
S21400CF508EF041E9000905E00A01416B0A010E0E58
S21400CF60426F03D00A01110E416F01D000D044E990
S21400CF70E7CFD9FF1200D9CFE6FFE1CFD9FF82E98C
S21400CF8058E80A01416B0A01415101E02CD0D1EC6E
S21400CF907FF0005014E0010EE66E010EE66E320ED3
S21400CFA0E66EE66AA1EC5BF044E9010EE66E020E60
S21400CFB0E66E070EE66EE66AA1EC5BF044E992ECDC
S21400CFC085F034EC94F00A01412BC80EE66E000E94
S21400CFD0E66E0E0EE66E8A0EE66EE66AE66AADEC63
S21400CFE06FF046E91DD1E66AF8EC6FF041E9E66AB3
S21400CFF034EC71F041E9000902E10400F8D7D95099
S21400D000040FE66EDACFE6FFE66A5CEC71F043E901
S21400D010FF0E045CE8E1E66A34EC71F041E90009D1
S21400D02001E1F9D7490EE66E000EE66EE66A5CECA4
S21400D03071F043E9000149510E0A01E1EBD01E0AE6
S21400D04001E1E8D01D0A01E1E4D0010A01E1E0D0E7
S21400D050070A01E1DCD0010A01E1D8D0030A01E1A8
S21400D060D4D0010A01E1D0D00F0A01E1CCD0010AE8
S21400D07001E1ABD0030A01E18CD0010A55E0070AB2
S21400D0801EE0010A1BE0030A18E0010A01E0C3D013
S21400D090010EE66E010EE66E300EE66EE66AA1EC56
S21400D0A05BF044E9010EE66E020EE66E310EE66EA9
S21400D0B0E66AA1EC5BF044E9B2D0B1D0B0D0000192
S21400D0C04B6B4C6B4D6B4E6B026A036A040E025C34
S21400D0D0000E035826E24DC04EF04CC04DF04BC03B
S21400D0E04CF000014B6BE66A34EC71F041E9000944
S21400D0F001E1F9D7D950040FE66EDACFE6FFE66A0B
S21400D1005CEC71F043E904EB85F000018551000109
S21400D1104B13000E4C134D134E13022A000E03221F
S21400D120D5D792EC85F07BD000014F6B506B516BDE
S21400D130526B026A036A040E025C000E035826E273
S21400D14051C052F050C051F04FC050F000014F6B2C
S21400D150E66A34EC71F041E9000901E1F9D7D950EB
S21400D160040FE66EDACFE6FFE66A5CEC71F043E9A0
S21400D17004EB85F00001855100014F13000E50139B
S21400D18051135213022A000E0322D5D792EC85F0D3
S21400D19046D04FC0E6FF50C0E6FF51C0E6FF52C083
S21400D1A0E6FF4BC0E6FF4CC0E6FF4DC0E6FF4EC0B4
S21400D1B0E6FF73EC84F048E959C04BF05AC04CF0D7
S21400D1C05BC04DF05CC04EF02AD04FC0E6FF50C0AA
S21400D1D0E6FF51C0E6FF52C0E6FF4BC0E6FF4CC07C
S21400D1E0E6FF4DC0E6FF4EC0E6FF1CEC85F048E9C2
S21400D1F059C04BF05AC04CF05BC04DF05CC04EF0CE
S21400D20092EC85F00CD00BD00AD009D008D007D00D
S21400D21006D005D004D09FEC85F00A01416B00D003
S21400D2200400B1D659E9E7CFD9FF1200D9CFE6FFFF
S21400D230E1CFD9FF81E973E80A0EE66EE66A040ECE
S21400D240E66E280EE66E010EE66ED950010FE66E0B
S21400D250DACFE6FFB4EC8BF047E90A0E336E33EB19
S21400D260E6FFD950010FE66EDACFE6FFE66A2CEC51
S21400D27070F044E974E9E7CFD9FF1200D9CFE6FF92
S21400D280E1CFD9FF81E973E80A0EE66EE66A0E0E74
S21400D290E66E280EE66E010EE66ED950010FE66EBB
S21400D2A0DACFE6FFB4EC8BF047E90A0E336E33EBC9
S21400D2B0E6FFD950010FE66EDACFE6FF010EE66E06
S21400D2C02CEC70F044E974E9E7CFD9FF12000A01AC
S21400D2D04151010A25E0010A01E073D0D1EC7FF04C
S21400D2E0010EE66E020EE66ED20EE66E0B0EE66ED1
S21400D2F012EC5FF044E9010EE66E030EE66EDB0EFE
S21400D300E66E0B0EE66E12EC5FF044E9070EE66E74
S21400D310A2EC5FF041E90F015F6B0A01412B51D08F
S21400D3200A014551010A31E0030A14E0060A01E049
S21400D33047D00A0146A10BD0020E0F015F5D07E140
S21400D340D1EC7FF00A010B0E426F0A01416B0A0115
S21400D350469136D00A0146A115D00F015F0512E1AD
S21400D360030EE66E77EC5BF041E9010EE66E030E07
S21400D370E66EF30EE66E0B0EE66E12EC5FF044E918
S21400D3800F015F2B0A0146911BD00A0146A115D05A
S21400D3900F015F5112E1030EE66E77EC5BF041E998
S21400D3A0010EE66E030EE66EE70EE66E0B0EE66EFA
S21400D3B012EC5FF044E90F015F2B0A01469100D0A2
S21400D3C000D012000A014151050A01E1C8D0010A45
S21400D3D001E1B7D0070A60E0010A2EE0030A1AE06E
S21400D3E0010A01E0BDD0D1EC7FF0010EE66E020E20
S21400D3F0E66EA00EE66E0B0EE66E12EC5FF044E9EB
S21400D400010EE66EE66AE66AECEC8DF043E90A0188
S21400D410412BA6D0E66A49EC8EF041E900090BE004
S21400D420FFEC80F00A01412B010EE66EE66AE66A22
S21400D430ECEC8DF043E994D0E66A49EC8EF041E9D5
S21400D440000929E0D1EC7FF00A01412B010EE66EBF
S21400D450E66EA00EE66E0B0EE66E12EC5FF044E98A
S21400D460010EE66E020EE66EA90EE66E0B0EE66E78
S21400D47012EC5FF044E9010EE66E030EE66EB80E9F
S21400D480E66E0B0EE66E12EC5FF044E9060EE66EF4
S21400D490A2EC5FF041E964D00A014551010A4BE075
S21400D4A0030A28E0060A01E04BD00A0146A11FD075
S21400D4B0010EE66E040EE66EC80EE66E0B0EE66E07
S21400D4C012EC5FF044E90A0105510AE1010EE66E2E
S21400D4D0E66AE66AECEC8DF043E90A01412B03D0DC
S21400D4E00A01050E416FE66AA2EC5FF041E90A0107
S21400D4F0469126D00A0146A11BD0010EE66E040E08
S21400D500E66ECD0EE66E0B0EE66E12EC5FF044E9AC
S21400D5100A0105510AE1010EE66EE66AE66AECECDF
S21400D5208DF043E90A01412B03D00A01050E416F35
S21400D5300A01469105D00A0146A100D0469100D0C6
S21400D5400FD0E66A49EC8EF041E9000907E0D1EC1D
S21400D5507FF00A010C0E426F0A01416B01D000D029
S21400D5601200D9CFE6FFE1CFD9FF81E947E8016A8B
S21400D5700A014151010A1FE0010A01E00AD1D1EC7B
S21400D5807FF0010EE66EE66E960EE66E0B0EE66E0B
S21400D59012EC5FF044E9040EE66EA2EC5FF041E99F
S21400D5A0200EE66E030EE66EE66EECEC8DF043E9BA
S21400D5B00A01412BEED0030EE66E49EC8EF041E9EF
S21400D5C0000901E1C5D0200EE66E030EE66EE66E9B
S21400D5D0ECEC8DF043E9100EE66EE66A070EE66E9A
S21400D5E058EC8DF043E9F350066EF450076E490E82
S21400D5F0E66E0A0EE66E06EBE6FF07EBE6FF63EC6A
S21400D6007EF044E9F350026EF450036E150EE66E9B
S21400D610E66AE66A5E0EE66E0A0EE66ED7EC8BF0FB
S21400D62045E9B00EE66E260EE66E010EE66E5E0E5E
S21400D630E66E0A0EE66E15EC8CF045E9490EE66ECF
S21400D6400A0EE66E5E0EE66E0A0EE66EF1EC8BF0E5
S21400D65044E9010EE66E020EE66E5E0EE66E0A0EF9
S21400D660E66E12EC5FF044E9100EE66EE66A040E13
S21400D670E66E58EC8DF043E9F350046EF450056EF8
S21400D680490EE66E0A0EE66E04EBE6FF05EBE6FFD5
S21400D69063EC7EF044E9F350026EF450036E150E10
S21400D6A0E66EE66AE66A5E0EE66E0A0EE66ED7EC92
S21400D6B08BF045E9A70EE66E260EE66E010EE66EC8
S21400D6C05E0EE66E0A0EE66E15EC8CF045E9490E27
S21400D6D0E66E0A0EE66E5E0EE66E0A0EE66EF1EC7C
S21400D6E08BF044E9010EE66E030EE66E5E0EE66E05
S21400D6F00A0EE66E12EC5FF044E90A0EE66E040EC1
S21400D700E66E5E0EE66E0A0EE66E1FCAE6FF20CADC
S21400D710E6FFF2EC7DF046E9F350026EF450036E3D
S21400D720A20EE66E260EE66E010EE66E5E0EE66E45
S21400D7300A0EE66E15EC8CF045E9010EE66E040E58
S21400D740E66E5E0EE66E0A0EE66E12EC5FF044E9DA
S21400D7500A014551010A17E0030A10E0060A01E033
S21400D76017D00A0146A107D0D1EC7FF00A010A0EB5
S21400D770426F0A01416B0A0146910AD00A0146A18E
S21400D78000D0469105D00A0146A100D0469100D0AF
S21400D79000D048E9E7CFD9FF12000A014151030A39
S21400D7A05CE0010A2FE0030A2CE0010A01E056D0F3
S21400D7B0D1EC7FF0010EE66EE66E730EE66E0B0E93
S21400D7C0E66E86EC5EF044E9010EE66E020EE66E4C
S21400D7D07B0EE66E0B0EE66E86EC5EF044E90A0102
S21400D7E0406B0F01010E016F13EC94F00A0EE66E0B
S21400D7F0E66A88EC7FF042E9E3EC43F00A01412B4D
S21400D8002DD02CD0D1EC7FF0010EE66EE66E730EB6
S21400D810E66E0B0EE66E86EC5EF044E9010EE66EF2
S21400D820020EE66E870EE66E0B0EE66E86EC5EF079
S21400D83044E920EC94F01E0EE66EE66A88EC7FF073
S21400D84042E90A014069030EE66EE66AE66AECEC17
S21400D8508DF043E90A01412B01D000D012000A01E5
S21400D8604151020A01E1BCD0030A55E0010A01E079
S21400D870E3D0010EE66EE66AE66AECEC8DF043E96C
S21400D8800A01412BD1EC7FF00A01055125E1010E7A
S21400D890E66E010EE66EF00EE66E010EE66E86ECA5
S21400D8A05EF044E9010EE66E020EE66EE50EE66EEA
S21400D8B0010EE66E86EC5EF044E90B0EE66EE66A56
